:020000040800F2
:1080000000000000FFFFFFFF4254544420477270FD
:108010005553422D4E4553206C6974652020202015
:0C802000302E373989BB00084584000869
:10802C0010B5054C237833B9044B13B10448AFF3A6
:10803C0000800123237010BD642800200000000084
:10804C0024DB000808B5034B1BB103490348AFF30D
:10805C00008008BD000000006828002024DB000818
:10806C0080B483B000AF4FF480637B60134B1B680C
:10807C000133124A1360114B1B681B780A2B04DC6A
:10808C00092B0CDA002B07D00BE0202B07D0FF2B91
:10809C0002D00D2B03D004E04FF0FF3309E0002396
:1080AC0007E07B68013B7B607B68002BDED14FF0E7
:1080BC00FF3318460C37BD4680BC70479C2C002003
:1080CC0080B483B000AF4FF480637B60134B1B68AC
:1080DC000133124A1360114B1B681B780A2B04DC0A
:1080EC00092B0DDA002B08D005E0202B08D0FF2B34
:1080FC0003D00D2B04D000230AE04FF0FF3307E030
:10810C007B68013B7B607B68002BDFD14FF0FF333A
:10811C0018460C37BD4680BC704700BF9C2C002015
:10812C0080B586B000AF78601E4B1B68FB60FFF714
:10813C0097FF1C4B1B681A46FB68D31A0A2B02DDEF
:10814C004FF0FF332AE0174B1B687B6101233B6127
:10815C007B6800221A607B69013B7B617B691B7821
:10816C00FB72FB7A303B092B02D94FF0FF3315E041
:10817C007B681A68FB7A303B19463B6903FB01F3B9
:10818C001A447B681A603A6913469B0013445B00DF
:10819C003B617A69FB689A42DDD100231846183797
:1081AC00BD4680BD9C2C0020F0B587B000AF0646C4
:1081BC00796000237B61002386F8FF33002461E0A3
:1081CC00544AE30013445B681946304605F080F8C6
:1081DC000246514B1A60504B1B68002B3AD0FFF7EC
:1081EC003FFF0346002B37D1FFF76AFF0346002BF6
:1081FC0034D1494B1B683B61FFF732FF0346002B20
:10820C002ED1454B1B681A463B69D31A012B29D139
:10821C003B691B783D2B27D1FFF752FF0346002B00
:10822C0024D107F10C031846FFF77AFF0346002B05
:10823C001ED1384AE30013445B881A46FB689A4205
:10824C0018D3FB689AB2354B23F814207B690133A1
:10825C007B6116E000BF0EE000BF0CE000BF0AE03F
:10826C0000BF08E000BF06E000BF04E000BF02E072
:10827C0000BF00E000BF274B33F83420274B23F816
:10828C0014200134264B1B78A34299D8244B1B781D
:10829C001A467B699A4215D0002500240DE070190E
:1082AC001C4AE30013445A681C4B33F814301D4924
:1082BC0004F0EAFF03461D440134194B1B78A3421A
:1082CC00EDD802E07B68002B20D14FF00063D3F88F
:1082DC00AC3998474FF00063D3F8B43912491348BE
:1082EC00984700240EE04FF00063D3F8B8596300B0
:1082FC0003F1006303F5684336F8142019460B4864
:10830C00A8470134B4F5007FEDD300E000BF1C3763
:10831C00BD46F0BD80DE00089C2C002038360020C5
:10832C00B4300020E0DC000800E800080020024027
:10833C0080B400AF00BFBD4680BC704780B483B032
:10834C0000AF786000BF0C37BD4680BC704780B46E
:10835C0000AF00BFBD4680BC7047000090B400AFBA
:10836C000246064B5C6800BF044B5B681B1B9342C8
:10837C00FAD300BFBD4690BC704700BF001000E0B0
:10838C0080B500AF134B9B699847134B4FF04432A9
:10839C001A60124B4FF044321A60104B4FF04432BB
:1083AC005A600D4B4FF044325A600D4B4FF4005253
:1083BC001A610C4B4FF0FF321A600B4B4FF0FF322F
:1083CC001A600A4B4FF0FF321A60094B00221A60F8
:1083DC0000BF80BDAC2A002000080140000C014009
:1083EC0000100140EC2A00200C350020B030002099
:1083FC001835002080B400AF0C4B4FF40242DA6009
:10840C000B4B0022DA600A4B4FF033321A60084BE8
:10841C004FF033325A60054B4FF033321A60034B36
:10842C00044A5A6000BFBD4680BC7047000801403A
:10843C00000C01404344444380B500AF144B1B680F
:10844C00002B0AD0124B1B68013B114A1360104BD6
:10845C001B68002B01D1FFF793FF0E4B1B68002B01
:10846C0014D00C4B1B68013B0A4A1360094B1B6868
:10847C00002B0BD1084B1B78002B03D00021074895
:10848C00FFF792FE064B1B68DB68984700BF80BD68
:10849C00183500200435002009350020A82C0020B8
:1084AC003436002080B500AF214B1B68002B38D12F
:1084BC00204B5B8801331A461D4B1A601E4B4FF440
:1084CC0000525A611D4B4EF28062DA601C4B002246
:1084DC00DA601A4B1B4A5A60184B4FF033321A6051
:1084EC00174B4FF033321A60154B4FF044325A6031
:1084FC00154B4FF0FF321A60144B4FF0FF321A60DD
:10850C00134B4FF0FF321A600A4B1B881A46114B63
:10851C0003FB02F31846FFF721FF0F4B5B699847EB
:10852C0005E0044B5B8801331A46014B1A6080BD91
:10853C00183500203836002000100140000801409A
:10854C00000C014033484433EC2A00200C35002049
:10855C00B030002040190100AC2A002098B500AFC3
:10856C000446FFF79FFF134A134B1B781B02194657
:10857C00E3B20B43D360114A230ADBB243F46643E4
:10858C0043F08003D3600A20FFF7E8FE0B4A230276
:10859C0003F4000343F4807313611420FFF7DEFE31
:1085AC00044B9B681B0ADCB2044B054A1A61234638
:1085BC00184698BD000C0140F02A0020000801402C
:1085CC0080000001F8B500AF04460D46FFF76AFFC6
:1085DC001D492A02E3B21343CB601C4A230ADBB2C7
:1085EC0043F4644343F08003D3600A20FFF7B6FEE4
:1085FC0004F40043002B04D0134A154B1B68536042
:10860C0003E0114B4FF033325A60104A230203F44B
:10861C00000343F4807313611420FFF79FFE0A4B91
:10862C009B681B0ADEB2094C80254FF48073636192
:10863C002561054A074B1B685360044B4FF40072CD
:10864C001A6133461846F8BD000C01400008014081
:10865C00982C0020A02C002098B500AF0446FFF702
:10866C0021FF134AE3B2D3601249E343DB0903F061
:10867C004002230A03F03F03134343F4664343F0E1
:10868C008003CB600A20FFF769FE0A4B4FF480424F
:10869C005A611420FFF762FE054B9B681B0ADCB283
:1086AC00044B4FF480421A612346184698BD00BF14
:1086BC00000C014000080140B0B500AF04460D4667
:1086CC00FFF7F0FE15492A02E3B21343CB601449BD
:1086DC00E343DB0903F04002230A03F03F03134397
:1086EC0043F4664343F08003CB600A20FFF736FE69
:1086FC000A4B4FF033325A60094B4FF400425A6127
:10870C001420FFF72BFE064B4FF400421A61034A6C
:10871C00044B1B68536000BFB0BD00BF000C014090
:10872C0000080140A02C0020F0B400AF02461368F2
:10873C007F2B01D9012363E013685B0103F1006413
:10874C0004F57044667FE38B40F60D218B4221D1FA
:10875C00637E2E2B1ED1237C2E2B05D0237C3D2B10
:10876C0002D0237C3F2B15D1A37E502B02D0A37EAD
:10877C00432B0FD1E37E522B02D0E37E482B09D141
:10878C00237F472B02D0237F522B03D1202E03D0E3
:10879C00212E01D0012333E000250EE0635D5A2B1E
:1087AC0005DC412B08DA303B012B03D804E0613B9C
:1087BC00192B01D9012323E001350F2DEEDD002506
:1087CC0016E063195B7C5A2B09DC412B0FDA2D2B3D
:1087DC000AD02D2B06DB303B012B03D807E0613B85
:1087EC00192B04D901230BE0074B0121197001351A
:1087FC00072DE6DD136801331360202E97D000237C
:10880C001846BD46F0BC7047AC300020B0B500AF88
:10881C0005460C462B461846FFF7A0FE2B46224673
:10882C0011461846FFF7CEFE2B461846FFF796FE6C
:10883C002A46631019461046FFF7C4FE2B4618460D
:10884C00FFF78CFE2A46A31019461046FFF7BAFE16
:10885C002B461846FFF782FE2A46E31019461046AF
:10886C00FFF7B0FE2B461846FFF778FE2A46231179
:10887C0019461046FFF7A6FE00BFB0BD2DE9F04F1C
:10888C0083B000AF83468A4600244FF6FF737B60AB
:10889C00002632E0CA4A4FEA4B13134433441B7888
:1088AC001D465A2D04DC412D0CDA312D05D023E068
:1088BC00A5F16103192B1FD80AE04FF40043334193
:1088CC001C4419E04FF4004333411C4485F020054F
:1088DC00A5F161034AFA03F303F00102C6F10F0399
:1088EC0002FA03F31C44A5F16103012202FA03F31B
:1088FC00DB437A681A407A6001360F2ECADDB04A23
:10890C004FEA4B13134410331B781946AC4A4FEA09
:10891C004B1313441A331B78CB181946712B03D005
:10892C000B467E2B07D039E023461846FFF794FE02
:10893C0003461D4605E023461846FFF70FFE034687
:10894C001D464FF0000825E09D4A4FEA4B13134497
:10895C00434411331B781C46412C19DB5A2C04DD83
:10896C00A4F16103192B13D805E0802343FA08F313
:10897C005D4084F02004613C012303FA04F6F343C8
:10898C0003EA0A0245FA08F3A340334042EA030A19
:10899C0008F10108B8F1070FD6DD1DE1002500260E
:1089AC004FF000093EE0864A4FEA4B1313444B4408
:1089BC0011331B789846B8F15A0F09DCB8F1410F06
:1089CC0014DAB8F1300F2BD0B8F1310F09D003E025
:1089DC00A8F16103192B0FD9802343FA09F31E4325
:1089EC001EE0802343FA09F31D4319E0802343FA68
:1089FC0009F31D4388F02008A8F161034AFA03F338
:108A0C0003F00102C9F1070302FA03F35D40A8F178
:108A1C006103012202FA03F3DB437A681A407A609D
:108A2C0009F10109B9F1070FBDDD0B46803B0F2B96
:108A3C0000F2D28001A252F823F000BF898A00080C
:108A4C00E58B0008FB8A0008E58B0008E58B000825
:108A5C00E58B0008E58B0008E58B0008E58B00082A
:108A6C00E58B0008E58B0008E58B0008E58B00081A
:108A7C00AF8A0008E58B0008158B0008002E09D082
:108A8C0023461846FFF7E8FD0246334613402A46B4
:108A9C0013431D4623462A4611461846FFF70CFE83
:108AAC009AE0002E09D023461846FFF757FD0246E0
:108ABC00334613402A4613431D46424B93F8363037
:108ACC005BB2002B0CDA04F40043002B08D005F049
:108ADC008003002B04D129462046FFF797FE7BE04C
:108AEC0023462A4611461846FFF76CFD74E0FF2E0C
:108AFC0001D100237CE023461846FFF7ADFD02466A
:108B0C002B4653401D464AE0FF2E01D100236FE057
:108B1C00B4F5807F13D0B4F5807F03DC231C1F2BAE
:108B2C0025D808E040F201139C4211D0A4F58873BB
:108B3C00EF2B1CD824E0244B1B5D5D402FE0234B16
:108B4C009B689B0A03F001032A4653401D4626E00E
:108B5C001E4B1F4A1A612820FFF700FC1B4B9B6819
:108B6C005B0B03F001032A4653401D4617E02346D6
:108B7C001846FFF7F3FC02462B4653401D460EE009
:108B8C00231103F00F021346DB001344DB001A46DB
:108B9C0004F00F0302FA03F31846FFF7DFFB86F02D
:108BAC00FF032B40002B01D0012321E07B684AEA14
:108BBC00030303F1010ABAF5803F0BDA64E600BF48
:108BCC0000F00008CC3400208C2800200008014064
:108BDC00280054004FF0000A084A5B4603F1010BD1
:108BEC005B0113441D331B78202B3FF44DAE002347
:108BFC0018460C37BD46BDE8F08F00BF00F00008EA
:108C0C0098B500AF1A4B93F836305BB2002B04DAF0
:108C1C0080214FF40040FFF7D5FC154B93F836300C
:108C2C0003F00103002B06D0114B93F82C300021DC
:108C3C001846FFF723FE0E4B93F8363003F004036F
:108C4C00002B12D04FF49040FFF788FC45F28800BF
:108C5C00FFF784FC002406E0234622461146184602
:108C6C00FFF72AFD0134FF2CF6DD00BF98BD00BFD5
:108C7C00CC34002080B500AF044B93F82D3000218C
:108C8C001846FFF7FBFD00BF80BD00BFCC340020B1
:108C9C0080B500AF0246064B93F829301846054BB9
:108CAC001B7E42FA03F31946FFF7E8FD00BF80BDB7
:108CBC00CC3400208C28002080B500AF0246064B37
:108CCC0093F82A301846054B5B7E42FA03F319469B
:108CDC00FFF7D4FD00BF80BDCC3400208C280020D1
:108CEC0080B500AF0246074B93F82B301846054B66
:108CFC0093F8233042FA03F31946FFF7BFFD00BF88
:108D0C0080BD00BFCC34002080B400AF03460A46BF
:108D1C00124819684901014409681148814212D16D
:108D2C00002A0BDA0D481968490101441C310978F5
:108D3C0001F00401002901D002230BE0013A002AC2
:108D4C0001D1012306E019680131196019687F29E6
:108D5C00DED900231846BD4680BC704700F00008E1
:108D6C004E45531A2DE9F04700AF0546654E06F106
:108D7C00280308220021184604F07DFA2B685A1C9F
:108D8C002A609A464FEA4A1303F1006404F57044D2
:108D9C0023685D4A934201D00123B0E0E38B40F697
:108DAC000D22934201D00223A9E023799A03637A1E
:108DBC009B0503F0707313439846B8F1000F01D173
:108DCC0003239CE0237E1A460123934043450BD298
:108DDC002B68DBB286F829302846FFF7A5FC034642
:108DEC00002B01D006238AE063795A03637A1B09AE
:108DFC00DBB25B0513439846637E1A46012393400E
:108E0C0043450BD22B68DBB286F82A302846FFF795
:108E1C008BFC0346002B01D0072370E0A37A1B09BF
:108E2C00DBB29846E37A1B09DBB29946B8F1000F26
:108E3C0010D008F10603A27E93420BD92B68DBB24B
:108E4C0086F82B302846FFF76FFC0346002B15D015
:108E5C00082354E0B9F1000F10D009F10603E27EAB
:108E6C0093420BD92B68DBB286F82B302846FFF7E0
:108E7C005BFC0346002B01D0082340E0237F03F06A
:108E8C000103002B0BD02B68DBB286F82C30284664
:108E9C00FFF74AFC0346002B01D004232FE0237F6D
:108EAC0003F00203002B0BD02B68DBB286F82D30BD
:108EBC002846FFF739FC0346002B01D005231EE0A2
:108ECC00237F03F00403002B0BD02B68DBB286F856
:108EDC002E302846FFF728FC0346002B01D009232F
:108EEC000DE02B68DBB286F82F302B687F2B01D975
:108EFC000A2304E05FFA8AF386F828300023184628
:108F0C00BDE8F087CC3400204E45531A98B500AF1D
:108F1C008F4B93F828305B0103F1006404F5704427
:108F2C00202221468B4804F09BF98A4B1B799A032B
:108F3C00884B5B7A9B0503F0707313431A46844B82
:108F4C001A60237E1A46012393409BB2013B9AB2CE
:108F5C007F4B1A817E4B1B687D4A12899B1A013B01
:108F6C007B4A53607A4B5B68002B08D07A4B7B4A68
:108F7C005A62774B5B6843F00043754A5360754BFC
:108F8C005B795A03734B5B7A5B0403F0F073134306
:108F9C001A466F4BDA606E4BDB68002B1DD0637E7C
:108FAC001A46012393409BB2013B9AB2684B9A82BA
:108FBC00674BDB68664A928A9B1A013B644A1361D1
:108FCC00634B1B69002B08D0634B654A9A62604B5C
:108FDC001B6943F000435E4A13615D4B00229A8487
:108FEC005C4B9B7A03F0F003002B18D0A37E002B74
:108FFC0015D0A27E564B83F82320A28A564B5A805A
:10900C00544B9B7A1B09DBB20633DAB2554B1A7000
:10901C00554B564A1A60564B564A1A601DE04D4B3A
:10902C00DB7A03F0F003002B17D0E37E002B14D077
:10903C00E27E474B83F82320E28A474B5A80454B0C
:10904C00DB7A1B09DBB20633DAB2464B1A70464B9D
:10905C00494A1A60464B494A1A60424B1B781A46D9
:10906C00012393401A463A4B9A61394B93F82330BB
:10907C001A46012393409BB2013B9AB2344B1A849B
:10908C00334B9B69324A128C9B1A013B304AD36199
:10909C002F4BDB69002B08D02F4B394A1A622C4B13
:1090AC00DB6943F000432A4AD361627F284B83F883
:1090BC003720274B93F8373003F02003002B03D0D5
:1090CC00304B4FF000421A60214B93F8373003F0CD
:1090DC004003002B02D02C4B244A1A60237F5BB236
:1090EC0003F001035AB2637F5BB223F07B035BB2E4
:1090FC0013435BB2DAB2164B83F83620144B93F859
:10910C003630002B02D0144B204A5A61237F03F0D7
:10911C000203002B02D0104B1D4A9A611D4A0C4BC6
:10912C0093F82F305B0113441C331B681A4A93428B
:10913C0036D1074B93F82F305B0103F1006303F535
:10914C00704310221946154804F08AF835E000BF28
:10915C00CC3400208C280020AC2A00209D8C0008E8
:10916C00C58C0008C8340020103500206985000823
:10917C0064360020D185000865860008C586000885
:10918C00ED8C0008742B00202C3500200D8C000871
:10919C00818C000800F0000840210D0ADC2A002018
:1091AC000F221649164804F05BF8164BDB8ADBB22B
:1091BC002033DAB2144B83F83F20124B5B891A46EA
:1091CC00124B1B7813404FF0113202FB03F303F1E7
:1091DC0033331A460E4B1A600E4B4FF044321A6062
:1091EC000D4B4FF0FF321A600C4B4FF0FF321A60F0
:1091FC000B4B4FF0FF321A6000BF98BDECDC00083F
:10920C00DC2A002038360020AC2A0020AC300020AC
:10921C00982C0020A02C0020EC2A00200C350020DB
:10922C00B030002080B500AF0246074B1B7E22FAFF
:10923C0003F3064A927A1340054AD35C184602F0AF
:10924C0091FB00BF80BD00BF8C280020CC340020D7
:10925C00782B002080B500AF0246074B5B7E22FACC
:10926C0003F3064A927D1340054AD35C184602F07C
:10927C0079FB00BF80BD00BF8C280020CC340020BF
:10928C003035002080B500AF80214FF40040FFF74F
:10929C0099F900214FF46040FFF7B8FA1E214FF402
:1092AC000040FFF7B3FA00BF80BD80B500AF1021BE
:1092BC004FF46040FFF7AAFA00BF80BD80B500AF45
:1092CC00034603F0010343F01E0319464FF400401C
:1092DC00FFF79CFA00BF80BD80B582B000AF02469C
:1092EC00094B5B7822FA03F37B6079684FF42040DA
:1092FC00FFF78CFA79684FF44040FFF787FA00BF0C
:10930C000837BD4680BD00BFAC2A002098B500AF21
:10931C000446A40B234603F00F0319464FF4604098
:10932C00FFF774FA234619464FF42040FFF76EFA04
:10933C00234619464FF44040FFF768FA00BF98BD2A
:10934C0080B500AF03461B0B03F01F0319464FF407
:10935C002040FFF75BFA00BF80BD000080B400AF77
:10936C000D4B1B780E2B02D10C4B0A225A700C4B56
:10937C001B79022B0BD80B4B47F6FF721A81084B4B
:10938C004FF400421A82074B4FF000425A6000BF64
:10939C00BD4680BC704700BFC8340020AC2A0020FA
:1093AC008C280020CC34002080B500AF034603F09D
:1093BC00010319464FF47040FFF704F900214FF4F4
:1093CC006040FFF7FFF800BF80BD000080B500AF24
:1093DC000246054B5B7822FA03F319464FF4204002
:1093EC00FFF7F0F800BF80BDAC2A002098B500AFA5
:1093FC000446230B19464FF43040FFF7E3F8230BD8
:10940C0019464FF44040FFF7DDF800BF98BD00004F
:10941C0080B500AF134B1B79022B0FD8124B0422D3
:10942C00DA71114B0D225A700F4B322283F83C200B
:10943C000C4B90229A7102F0A5F810E0094B4FF4F6
:10944C0000421A82094B1B8983F400539AB2074BD2
:10945C001A81064B5B6883F40053044A536000BFC7
:10946C0080BD00BF8C280020AC2A0020CC3400200A
:10947C0080B500AF20214FF40040FFF7A3F8044B58
:10948C005B7819464AF20100FFF79CF800BF80BDDB
:10949C00AC2A002080B500AF00214AF20100FFF792
:1094AC0091F800BF80BD80B500AF034603F0010307
:1094BC0019464FF42040FFF785F800214FF4004087
:1094CC00FFF780F800BF80BD98B500AF0446262199
:1094DC004FF40040FFF776F8630B194648F2010091
:1094EC00FFF770F800BF98BD98B500AF0446222175
:1094FC004FF40040FFF766F8A30A194648F2010042
:10950C00FFF760F800BF98BD90B583B000AF744B07
:10951C004FF4C0425A80734B4FF4C0429A820121DF
:10952C004FF44040FFF74EF801214CF20100FFF7D9
:10953C0049F800214FF46040FFF744F800214EF247
:10954C000100FFF73FF800237B6006E04FF400407A
:10955C00FFF704F87B6801337B607B68072BF5DD34
:10956C00614B9B6803F48063002B39D15C4B5F4AE1
:10957C0003F1300413460FCB84E80F00584BDB6823
:10958C00DAB2574B83F83D20554B1B69DAB2544B7A
:10959C0083F83E20534B9B795BB203F00F035AB216
:1095AC004F4BDB7A1B015BB213435BB2DAB24D4B10
:1095BC009A714C4BDB795BB203F00F035AB2484BF8
:1095CC00DB7A5BB223F00F035BB213435BB2DAB20C
:1095DC00444BDA7100214FF46040FEF7F3FF7BE05F
:1095EC00434B1B780A2B18D13E4B0A229A763C4BE4
:1095FC00F0225A703A4B5B7819464AF20100FEF79A
:10960C00E1FF374B362283F83C20364B10221A727E
:10961C00384B4FF440629A845EE022214FF40040B4
:10962C00FEF7D0FF002148F20100FEF7CBFF4FF40C
:10963C008050FFF711F803461C46E34319464FF4DC
:10964C008050FFF739F84FF48050FFF705F80246C9
:10965C0023469A423DD1402148F20100FEF7B2FF69
:10966C004FF48050FEF7F8FF0346DB43DCB2234691
:10967C0019464FF48050FFF71FF84FF48050FEF757
:10968C00EBFF024623469A4225D105221A491B4874
:10969C0003F0E6FD134B5B795B08DAB2114B5A71A0
:1096AC00104B9B795BB203F00F035BB243F070037A
:1096BC005BB2DAB20B4B9A710A4BDB795BB203F0FB
:1096CC000F035BB243F070035BB2DAB2054BDA7195
:1096DC0002E000BF00E000BF0C37BD4690BD00BFEC
:1096EC00AC2A00208C28002000080140FCDC00087B
:1096FC00C8340020CC34002010DD0008E52A0020FE
:10970C0098B500AF044682214FF40040FEF75AFF93
:10971C00002148F20100FEF755FF83214FF4004071
:10972C00FEF750FFE30183F08003194648F2010075
:10973C00FEF748FF84214FF40040FEF743FFE3019E
:10974C00194648F20100FEF73DFF85214FF4004019
:10975C00FEF738FF012148F20100FEF733FF00BF8E
:10976C0098BD80B500AF00214FF40050FEF72AFFE2
:10977C00002142F20100FEF725FF03214FF4A24025
:10978C00FEF720FF002145F20110FEF71BFF02211E
:10979C0045F20410FEF716FF442145F20510FEF7C2
:1097AC0011FF002145F21310FEF70CFF022145F2C8
:1097BC000210FEF707FF012145F20310FEF702FF2E
:1097CC0000BF80BD80B500AF002145F20210FEF74E
:1097DC00F9FE002145F20310FEF7F4FE00BF80BD38
:1097EC0080B500AF034603F0010213465B0013443F
:1097FC009B004433194645F20510FEF7E3FE4FF487
:10980C000050FEF729FF00BF80BD80B500AF0346B6
:10981C005B0B194645F21310FEF7D4FE00BF80BD5A
:10982C0080B500AF03465B0B43F08003194645F24D
:10983C001410FEF7C7FE00BF80BD80B500AF034615
:10984C005B0B194645F22710FEF7BCFE00BF80BD2E
:10985C0080B500AF03461B0103F0100319464FF40B
:10986C000040FEF7AFFE00BF80BD80B500AF0346E1
:10987C00DB0B19464FF40040FEF7A4FE00BF80BD81
:10988C0080B500AF032149F20200FEF79BFE00BF3A
:10989C0080BD80B500AF002149F20200FEF792FEB8
:1098AC0000BF80BD80B500AF034603F00103002B61
:1098BC000CBF01230023DBB219464FF20200FEF766
:1098CC0081FE00214FF40040FEF77CFE00BF80BDFE
:1098DC0098B500AF0446630B19464FF40040FEF7F1
:1098EC0071FE630C194648F20100FEF76BFE00BFD7
:1098FC0098BD98B500AF0446A30A19464FF4204012
:10990C00FEF760FEA30B19464AF20100FEF75AFE61
:10991C0000BF98BD80B500AFC0214FF46840FEF782
:10992C0051FE40214FF47840FEF74CFE00BF80BD45
:10993C0080B500AF00214FF47840FEF743FE00BF26
:10994C0080BD98B500AF0446FE214FF44040FEF7B1
:10995C0039FE84F0010343F0FE0319464FF44840EE
:10996C00FEF730FE44F0FE0319464FF45040FEF76C
:10997C0029FEFF214FF45840FEF724FE00BF98BD8E
:10998C0080B500AF03465B0B43F0C00319464FF4A0
:10999C006840FEF717FE00BF80BD80B500AF0346E0
:1099AC009B0A19464FF40040FEF70CFE00BF80BD29
:1099BC0080B500AFA0214BF20300FEF703FE00BF01
:1099CC0080BD80B500AF20214BF20300FEF7FAFDFD
:1099DC0000BF80BD80B500AF03469B0003F00403BD
:1099EC0043F0A00319464BF20300FEF7EBFD0021F8
:1099FC004FF40040FEF7E6FD00BF80BD80B500AF20
:109A0C0003465B0B19464FF44040FEF7DBFD00BFED
:109A1C0080BD80B500AF03469B0A19464FF45040F9
:109A2C00FEF7D0FD00BF80BD80B500AF002149F22C
:109A3C000300FEF7C7FD00BF80BD80B500AF034635
:109A4C0003F0010319464FF41040FEF7BBFD002153
:109A5C0049F20300FEF7B6FD00BF80BD80B500AF34
:109A6C0003465B0B19464FF40040FEF7ABFD00BFFD
:109A7C0080BD98B500AF0446A30A19464FF4304098
:109A8C00FEF7A0FDA30B19464BF20200FEF79AFD60
:109A9C0000BF98BD80B500AF03469B0103F04003A7
:109AAC0019464FF40040FEF78DFD002148F20100ED
:109ABC00FEF788FD00BF80BD80B500AF0346DB0A12
:109ACC00194648F20200FEF77DFD00BF80BD80B54F
:109ADC0000AF08214FF40040FEF774FDC0214FF495
:109AEC002040FEF76FFD00BF80BD80B500AF0821A0
:109AFC004FF40040FEF766FD00214FF42040FEF7C6
:109B0C0061FD00BF80BD98B500AF04460C214FF439
:109B1C000040FEF757FD04F0010319464FF42040B6
:109B2C00FEF750FD0C214FF40040FEF74BFD00BF3B
:109B3C0098BD98B500AF044608214FF40040FEF7DD
:109B4C0041FD630B43F0C00319464FF42040FEF770
:109B5C0039FD00BF98BD98B500AF044609214FF4FC
:109B6C000040FEF72FFD630B19464FF42040FEF723
:109B7C0029FD00BF98BD98B500AF044600214FF4F5
:109B8C000040FEF71FFDA30A19464FF42040FEF7D4
:109B9C0019FD00BF98BD80B500AF80214FF4604027
:109BAC00FEF710FD00BF80BD80B500AF00214FF463
:109BBC006040FEF707FD00BF80BD80B500AF0346D7
:109BCC0003F0010319464FF46040FEF7FBFC002143
:109BDC004EF21800FEF7F6FC00BF80BD80B500AF5A
:109BEC0003469B0A19464FF42040FEF7EBFC00BFDE
:109BFC0080BD80B500AF10214FF47040FEF7E2FC41
:109C0C0000BF80BD80B500AF00214FF47040FEF75F
:109C1C00D9FC00BF80BD80B500AF034603F0010343
:109C2C0019464FF46040FEF7CDFC00214FF4504034
:109C3C00FEF7C8FC00BF80BD80B500AF03469B0B90
:109C4C0003F00F0343F0100319464FF47040FEF776
:109C5C00B9FC00BF80BD80B500AF03465B0303F4C5
:109C6C00005343F4004300211846FEF7ABFC00BF41
:109C7C0080BD80B500AF03461A0A02F47C629B09D2
:109C8C0003F48043134343F4104300211846FEF7BA
:109C9C0099FC00BF80BD80B500AF03465A0B02F0A3
:109CAC003F025B0903F48043134343F40043002158
:109CBC001846FEF787FC00BF80BD80B500AF034699
:109CCC001B0B03F00803194645F6FF70FEF77AFCF0
:109CDC0000BF80BD80B500AF03465B0B03F00703EC
:109CEC00194645F6FF70FEF76DFC00BF80BD98B5B8
:109CFC0000AF044606214FF40040FEF763FC630BF3
:109D0C00194648F20100FEF75DFC00BF98BD80B516
:109D1C0000AF0346DB0B03F00F0319464FF4A040D2
:109D2C00FEF750FC00BF80BD80B500AF0346DB0BD7
:109D3C0003F01F0319464FF44040FEF743FC00BFED
:109D4C0080BD80B500AF0346DB01DBB219464FF492
:109D5C004040FEF737FC00BF80BD80B500AF034626
:109D6C00DB0119464FF46040FEF72CFC00BF80BDB0
:109D7C0080B400AF034B20221A7200BFBD4680BCDA
:109D8C00704700BF8C28002080B500AF03465B0BEA
:109D9C0019464FF46040FEF715FC00BF80BD80B53E
:109DAC0000AF03469B0A19464FF40040FEF70AFC2D
:109DBC0000BF80BD80B500AF034603F00103194618
:109DCC004FF41040FEF7FEFB00BF80BD98B500AF0E
:109DDC000446E30B19464FF41040FEF7F3FB230B3C
:109DEC0019464FF46040FEF7EDFB00BF98BD98B5E7
:109DFC0000AF4FF49040FEF7B1FB45F28800FEF740
:109E0C00ADFB002407E0224644F0800319461046BF
:109E1C00FEF752FC01347F2CF5DD00BF98BD00002D
:109E2C00B0B500AFAA214DF25550FEF7CBFB552132
:109E3C004AF6AA20FEF7C6FB90214DF25550FEF7CC
:109E4C00C1FB2820FEF78AFA4FF40040FEF786FB90
:109E5C0003461D4648F20100FEF780FB03461C46F4
:109E6C00F0214FF40040FEF7ADFB2820FEF776FA08
:109E7C00BF2D24D1B42C22DDB72C20DCA4F1A403FB
:109E8C00012202FA03F31A463A4B1A60394B1B684B
:109E9C009B0BDAB2384B1A71364B1B68354A128958
:109EAC009B1A013B43F00043324A5360314B93F809
:109EBC00373043F00103DAB22E4B83F8372042F2ED
:109ECC000500FEF7C9FBAA2141F25550FEF7F4FB41
:109EDC0042F20200FEF7C0FB552141F6AA20FEF724
:109EEC00EBFB42F20500FEF7B7FB902141F2555017
:109EFC00FEF7E2FB2820FEF731FA4FF48050FEF714
:109F0C00ABFB03461D4641F20100FEF7A5FB0346E1
:109F1C001C46F0214FF48050FEF7CEFB2820FEF7B4
:109F2C001DFABF2D24D1B42C22DDB72C20DCA4F1DA
:109F3C00A403012202FA03F31A460E4BDA600D4B0E
:109F4C00DB685B0BDAB20C4B5A710A4BDB68094AC3
:109F5C00928A9B1A013B43F00043064A1361054B5E
:109F6C0093F8373043F00203DAB2024B83F8372010
:109F7C0000BFB0BDCC3400208C28002080B500AFD1
:109F8C000346DB01DBB243F490431846FEF7E6FAD6
:109F9C0000BF80BD80B500AF0346DB0B03F00F03A1
:109FAC0043F490431846FEF7D9FA00BF80BD80B544
:109FBC0000AF03461B0B03F07F0343F4005318461A
:109FCC00FEF74AFB00BF80BD98B500AF204B4FF0A9
:109FDC0000421A60002405E0802145F20100FEF7E2
:109FEC00F1FA0134B4F5803FF6DB1A4BDB8C46F208
:109FFC000402934203D1184B00225A8004E08021C2
:10A00C004AF20100FEF7DEFA124BDB8C1C462346AB
:10A01C0040211846FEF7D6FA631C80211846FEF73D
:10A02C00D1FAA31C70211846FEF7CCFAE31C0021D0
:10A03C001846FEF7C7FA26214FF40040FEF7C2FA85
:10A04C00FF2148F20100FEF7BDFA00BF98BD00BF2A
:10A05C00742B0020CC340020AC2A002098B500AF23
:10A06C00002405E0802145F20100FEF7ABFA013433
:10A07C00B4F5803FF6DB0F4BDB8C1C4623460021EE
:10A08C001846FEF79FFA631C60211846FEF79AFAF1
:10A09C00A31C70211846FEF795FAE31C0021184604
:10A0AC00FEF790FA80214AF20100FEF78BFA00BF0E
:10A0BC0098BD00BFCC340020B0B500AF04460E4BA9
:10A0CC00DB8C1D46E30B03F03002630B03F007033C
:10A0DC001343403319462846FEF774FA681CE30B09
:10A0EC0003F00C02230B03F01003134380331946C7
:10A0FC00FEF768FA00BFB0BDCC340020B0B500AF9D
:10A10C00044626214FF40040FEF75CFA630B194617
:10A11C0048F20100FEF756FA0A4BDB8C1D46E30CA5
:10A12C0003F0300319462846FEF74CFA6A1CE30C80
:10A13C0003F00C03603319461046FEF743FA00BFD8
:10A14C00B0BD00BFCC34002098B500AF0446202130
:10A15C004FF40040FEF736FAA30A194648F2010004
:10A16C00FEF730FA00BF98BDF8B500AF03469AB2BF
:10A17C001A4BDA84FFF728FF002528E02B461846F7
:10A18C00FFF79AFF00241EE0002D0FD0144B1B5D2F
:10A19C001E46144B33F8143003F500431846FEF7F3
:10A1AC00DDF903469E420DD0012314E00D4B33F82C
:10A1BC00143003F500431846FEF7D0F90346DAB223
:10A1CC00074B1A550134072CDEDD05F50055B5F5A6
:10A1DC00001FD3DB00231846F8BD00BFCC34002091
:10A1EC00C8320020F8DF0008B0B500AF45F204001B
:10A1FC00FFF7BAFF0346002B2FD000240AE004F52A
:10A20C007F43F0331846FEF7A9F90346DAB2194B2F
:10A21C001A5501340F2CF2DD00214FF4A040FEF74B
:10A22C00D1F900214FF4A240FEF7CCF9002410E044
:10A23C00104B1B5D1D4604F57F43F0331846FEF7AB
:10A24C008DF903469D4203D078690130786102E0B4
:10A25C0001340F2CECDD012309E046F20400FFF77A
:10A26C0083FF0346002B01D0012300E00023184696
:10A27C00B0BD00BFC8320020B0B500AF134C144DB8
:10A28C0023791B09DBB2637223791B01DBB22371C7
:10A29C00104B6B61104B6B62E37943F00803DBB23C
:10A2AC00E3710E4BDB8C45F20402934202D1112375
:10A2BC00237208E005F1370308220949184602F019
:10A2CC00CFFF0123237200BFB0BD00BF8C2800203C
:10A2DC00AC2A002069A0000809A10008CC34002099
:10A2EC0018DD000880B500AF094B0A4A1A6000213E
:10A2FC004FF4A040FEF766F900214FF4A240FEF7A0
:10A30C0061F9B0214AF20100FEF75CF900BF80BD93
:10A31C002C3500206985000898B500AF044626212D
:10A32C004FF40040FEF74EF9630B83F020031946FF
:10A33C0048F20100FEF746F900BF98BD80B400AFAB
:10A34C0000231846BD4680BC7047000098B500AF8E
:10A35C0004460020FEF702F91548FDF7FFFF4FF603
:10A36C00FF70FEF7FBF81348FDF7F8FFE30B124AFA
:10A37C00D35C03F57F4380331846FEF7EFF80346B2
:10A38C0003F04003002B07D0230B03F00E02E30B6A
:10A39C0003F00103134302E0630B03F003031C46B9
:10A3AC0004F57F43E8331846FEF7D8F800BF98BD94
:10A3BC00804F1200C0D4010088E0000880B500AFC7
:10A3CC000346B3F5FF4F06D10020FEF7C7F8094846
:10A3DC00FDF7C4FF0CE0B3F5004F03D2064B074A60
:10A3EC005A6005E0044A064951601846FFF7AEFF73
:10A3FC0080BD00BF804F1200CC340020FFFF0780CF
:10A40C000080078090B400AF02460B46002B09D1A8
:10A41C001346064A146850689168D2681C605860EC
:10A42C009960DA6000BFBD4690BC7047B830002020
:10A43C0080B500AF02460B46002B06D113464FF4F5
:10A44C0000720349184602F00BFF00BF80BD00BF2D
:10A45C00AC28002080B500AF02460B46002B06D17D
:10A46C0013464FF400720349184602F0F9FE00BF80
:10A47C0080BD00BFC830002080B500AF02460B463F
:10A48C00012B0AD810465B0203F1006303F5684305
:10A49C004FF40072194602F0E3FE00BF80BD0000CD
:10A4AC0080B500AF0B46012B08D85B02084A134459
:10A4BC0001464FF40072184602F0D2FE054B4FF4E1
:10A4CC007A721A60044B01221A7000BF80BD00BF63
:10A4DC00A82C0020043500200935002080B500AFE1
:10A4EC004FF00063D3F8AC3998474FF00063D3F8C2
:10A4FC00B4390D490D4898474FF00063D3F8B4397F
:10A50C000B490A4898474FF00063D3F8B43909490E
:10A51C00064898474FF00063D3F8B439064903480E
:10A52C00984700BF80BD00BF00F00008002002402B
:10A53C0000F4000800F8000800FC000880B500AF2B
:10A54C0002460B46072B0AD810465B0203F1006348
:10A55C0003F570434FF40072194602F081FE00BF00
:10A56C0080BD00002DE9F04100AF80460C46072C61
:10A57C0033D81B4B4FF47A721A601A4B1B78234159
:10A58C0003F00103002B04D1164BFF221A70FFF7C6
:10A59C00A5FF0123A3405BB2DB435AB2114B1B78DE
:10A5AC005BB213405BB2DAB20E4B1A702502002478
:10A5BC0011E04FF00063D3F8B8696B0003F100634E
:10A5CC0003F57043414662000A4412881946064856
:10A5DC00B04701340135FF2CEBD900BFBDE8F08149
:10A5EC0004350020942C00200020024080B500AFE0
:10A5FC0002460B46012B0AD810465B0203F100639E
:10A60C0003F56C434FF40072194602F029FE00BFAB
:10A61C0080BD00002DE9F04100AF80460C46012CB6
:10A62C003FD8214B4FF47A721A60204B1B78234190
:10A63C0003F00103002B0ED14FF00063D3F8AC39BB
:10A64C0098474FF00063D3F8B43919491948984723
:10A65C00164B03221A700123A3405BB2DB435AB2A0
:10A66C00124B1B785BB213405BB2DAB20F4B1A7011
:10A67C00230203F48075002411E04FF00063D3F83B
:10A68C00B8696B0003F1006303F56C43414662004B
:10A69C000A44128819460748B04701340135FF2C8B
:10A6AC00EBD900BFBDE8F08104350020B5300020A7
:10A6BC0000EC00080020024080B400AF084B1B687F
:10A6CC000D221A70064B1B6801330A221A70044BB8
:10A6DC001B680233024A136000BFBD4680BC704742
:10A6EC00A830002080B400AF0346084A126820212D
:10A6FC001170064A1268013204490A60013B002BB2
:10A70C00F3D100BFBD4680BC704700BFA83000200D
:10A71C002DE9F84300AF064689460220FFF7E2FF19
:10A72C004D461D4B1B68013D2A4613441B781C46A5
:10A73C004FEA241804F00F04184B1A68B8F1090FEB
:10A74C0004DD5FFA88F33733DBB203E05FFA88F39A
:10A75C003033DBB21370114B1B685A1C092C03DD10
:10A76C00E3B23733DBB202E0E3B23033DBB2137067
:10A77C000A4B1B680233094A1360002DD1D1064BDA
:10A78C001B684A461344044A1360013E002EC4D190
:10A79C0000BFBDE8F88300BF30360020A830002091
:10A7AC0098B500AF03460A4619463A4B1960002A81
:10A7BC0005D1394B00221A80384B394A1A600024D3
:10A7CC0063E0354B1B88022B38D0032B31D0012B87
:10A7DC003FD0324B1B6803331B78203B5E2B12D8C7
:10A7EC002C4B18682D4B1B682022194602F038FDA3
:10A7FC002A4B1B682033294A1360264B1B682033D5
:10A80C00244A13603AE0244B04221A80FFF754FFC9
:10A81C0004210120FFF77CFF1E4B1B680A3B2422FE
:10A82C001A7001210420FFF773FF0420FFF75AFF71
:10A83C0024E001210820FFF76BFF1FE00420FFF745
:10A84C0051FF02210420FFF763FF0420FFF74AFFAA
:10A85C0014E001210420FFF75BFF0420FFF742FF07
:10A86C0001210220FFF754FF0220FFF73BFFFFF707
:10A87C0023FF0A4B1B680233084A13600134064B52
:10A88C001B88013B9AB2044B1A800F2C99DD00BF38
:10A89C0098BD00BFA8300020E836002030360020DC
:10A8AC0000F000082DE9F04782B000AF8246CD4C95
:10A8BC00637D1E46CC4B4FF47A721A60002903D18B
:10A8CC000523E375002323754FF00009EEE1524692
:10A8DC004B4613441B781D46E37D052B00F2E481A7
:10A8EC0001A252F823F000BF25A9000835A90008E1
:10A8FC004DAA000867A900080DA9000819A90008AD
:10A90C000A2D00D0D0E10523E375CDE10A2D00F02E
:10A91C00C6810D2D00F0C3810026242D02D1032306
:10A92C00E375C1E10123E3750A2D03D00D2D00F071
:10A93C00B88109E033465E1CAC4A2021D1541D2E4F
:10A94C00F8DD0523E37567E133465E1CE9B2A74ADF
:10A95C00D1541D2E40F3A5815CE1A5F10903322BE6
:10A96C0068D801A252F823F0B3AC0008B3AC0008CD
:10A97C0041AA000841AA0008B3AC000841AA00088B
:10A98C0041AA000841AA000841AA000841AA0008EF
:10A99C0041AA000841AA000841AA000841AA0008DF
:10A9AC0041AA000841AA000841AA000841AA0008CF
:10A9BC0041AA000841AA000841AA000841AA0008BF
:10A9CC0041AA0008B3AC000841AA000841AA00083B
:10A9DC0041AA000841AA000841AA000841AA00089F
:10A9EC0041AA000841AA000841AA000841AA00088F
:10A9FC0041AA0008B3AC000841AA000841AA00080B
:10AA0C0041AA000841AA000841AA000841AA00086E
:10AA1C0041AA000841AA000841AA000841AA00085E
:10AA2C0041AA000841AA000841AA000841AA00084E
:10AA3C00B3AC00080023A375002323610223E37544
:10AA4C00A5F109035D2B00F22F8101A252F823F02E
:10AA5C00FDAB0008FDAB0008B5AC0008B5AC0008B8
:10AA6C00FDAB0008B5AC0008B5AC0008B5AC0008EF
:10AA7C00B5AC0008B5AC0008B5AC0008B5AC000826
:10AA8C00B5AC0008B5AC0008B5AC0008B5AC000816
:10AA9C00B5AC0008B5AC0008B5AC0008B5AC000806
:10AAAC00B5AC0008B5AC0008B5AC0008FDAB0008AF
:10AABC00B5AC0008B5AC0008B5AC0008B5AC0008E6
:10AACC00B5AC0008B5AC0008B5AC0008B5AC0008D6
:10AADC00B5AC0008B5AC0008B5AC0008FDAB00087F
:10AAEC00B5AC0008B5AC0008B5AC0008DBAB000891
:10AAFC00DBAB0008DBAB0008DBAB0008DBAB000812
:10AB0C00DBAB0008DBAB0008DBAB0008DBAB000801
:10AB1C00DBAB0008B5AC0008FDAB0008B5AC000819
:10AB2C00B5AC0008B5AC0008B5AC0008B5AC000875
:10AB3C00D9AB0008D9AB0008D9AB0008D9AB0008D9
:10AB4C00D9AB0008D9AB0008B5AC0008B5AC00080F
:10AB5C00B5AC0008B5AC0008B5AC0008B5AC000845
:10AB6C00B5AC0008B5AC0008B5AC0008B5AC000835
:10AB7C00B5AC0008B5AC0008B5AC0008B5AC000825
:10AB8C00B5AC0008B5AC0008B5AC0008B5AC000815
:10AB9C00B5AC0008B5AC0008B5AC0008B5AC000805
:10ABAC00B5AC0008B5AC0008B5AC0008B5AC0008F5
:10ABBC00D5AB0008D5AB0008D5AB0008D5AB000869
:10ABCC00D5AB0008D5AB000885F02005073D2369FF
:10ABDC001B012A461344303B2361A37D0133DBB2B6
:10ABEC00A37561E07C2C002004350020A82C0020EB
:10ABFC00A37D5B08DBB2A375344B334404F1100125
:10AC0C00A27D184602F02CFBA37D1E440323E375A2
:10AC1C001D2E49DD0423E3752C4B40F60D22DA83FF
:10AC2C00237D5A1CD2B22275984608F01F054FEAB4
:10AC3C00681354F82330EB4003F00103002B07D1C9
:10AC4C0023461022FF21184602F015FBFFF746FCA5
:10AC5C004FEA68134FEA681254F822200121A940E8
:10AC6C00C9430A4044F82320002515E04FF0006347
:10AC7C00D3F8B8397B6043461B012A4613445B006A
:10AC8C0003F1006303F57043104A32F8152019469E
:10AC9C000F487B68984701350F2DE7DD04E000BFB6
:10ACAC0002E000BF00E000BF09F10109B9F5007F27
:10ACBC0004DA237D5BB2002BBFF609AEF3B26375E9
:10ACCC0000BF0837BD46BDE8F08700BFA82C0020A8
:10ACDC000020024080B500AF02460B46002B06D187
:10ACEC00044B104619464D231A4602F0B9FA00BF20
:10ACFC0080BD00BF28DF000880B500AF02460B46C0
:10AD0C00002B07D1044B104619464FF400731A461A
:10AD1C0002F0A6FA00BF80BDC8320020B0B500AF6B
:10AD2C0005460C46084B1B68DB689847002C08D17D
:10AD3C002A46064B104619464FF400731A4602F089
:10AD4C008FFA00BFB0BD00BF34360020C8320020DF
:10AD5C0080B500AF02460B467F2B0AD810465B022B
:10AD6C0003F1006303F580334FF40072194602F0CF
:10AD7C0077FA00BF80BD00002DE9F04383B000AF2F
:10AD8C0080460D46444B1A68444B1B681343424A99
:10AD9C0013606D0220237B602C4610350F2C09D8D4
:10ADAC00434610223E49184602F05AFA43461033E5
:10ADBC00984665E0103C3B4B1B68A3422CD9364BA4
:10ADCC001B6884EA0302374B5B681340002B0BD0E3
:10ADDC00314B1C60344B1B6843F00043324A136008
:10ADEC00324B5B6A204698472E4B1B891C402C4BE0
:10ADFC001B8A1C441026C14623465C1C1846FDF7D2
:10AE0C00ADFB0346DBB289F800304346013398466C
:10AE1C00013E002EEFD133E0224B1B68E41A214B8C
:10AE2C00DB68A3422CD9204B1B6884EA03021D4B20
:10AE3C001B691340002B0BD01B4B1C60164B1B6863
:10AE4C0043F00043144A1360184B9B6A2046984702
:10AE5C00144B9B8A1C40124B5B8A1C441026C14627
:10AE6C00134B1B682246541C104698470346DBB212
:10AE7C0089F80030434601339846013E002EEED14E
:10AE8C007B68013B7B607B68002B85D100BF0C3756
:10AE9C00BD46BDE8F08300BFEC2A0020742B0020D7
:10AEAC008C280020CC3400200C350020AC2A00204B
:10AEBC002C3500202DE9F04100AF80460C46640291
:10AECC00134B1B6884EA0302124BDB691340002B03
:10AEDC0005D00F4B1C60104B1B6A204698470D4B3E
:10AEEC001B8C1C400C4B5B881C44002543465E1994
:10AEFC000A4B1B686219104698470346DBB2337045
:10AF0C000135B5F5007FF1D300BFBDE8F08100BF7E
:10AF1C00B0300020CC340020AC2A002010350020AA
:10AF2C00F8B500AF06460C466402134B1B6884EA66
:10AF3C000302124BDB691340002B05D00E4B1C6037
:10AF4C000F4B1B6A204698470C4B9B8C1C440B4B9D
:10AF5C001B8C1C400A4B5B881C440025094B1B684E
:10AF6C00601932462A441278114698470135B5F5D6
:10AF7C00007FF3D300BFF8BDB0300020CC340020EC
:10AF8C00AC2A002064360020B0B500AF04460D4654
:10AF9C001A4B1B6884EA0302194B5B681340002BA5
:10AFAC0005D0164B1C60174B5B6A20469847144B18
:10AFBC001B891C40144B1B8A1C4414492A02E3B203
:10AFCC001343CB60124A230ADBB243F4644343F0CD
:10AFDC008003D3600D4B4FF033325A600C4A23027E
:10AFEC0003F4000343F480731361094B094A1A619B
:10AFFC00064B4FF044325A6000BFB0BDEC2A002023
:10B00C00CC340020AC2A00208C280020000C0140FD
:10B01C0000080140800000012DE9F04700AF824696
:10B02C008846FDF73FFA4FEA4826414B1B8A1A46E1
:10B03C00404B1B893340D5184FEAD80408F0070859
:10B04C003D4B1B5D43FA08F303F00103002B2ED19B
:10B05C00AA2145F25550FFF797FF552142F6AA2039
:10B06C00FFF792FF802145F25550FFF78DFFAA2183
:10B07C0045F25550FFF788FF552142F6AA20FFF7FD
:10B08C0083FF30213046FFF77FFF00BF2846FDF7D6
:10B09C0065FA81462846FDF761FA034689EA0303FF
:10B0AC0003F04003002BF1D1234BFF221A55224B06
:10B0BC001B5D5AB2012303FA08F35BB2DB435BB2AC
:10B0CC0013405BB2DAB21C4B1A55002429E0AA21BA
:10B0DC0045F25550FFF758FF552142F6AA20FFF7CD
:10B0EC0053FFA02145F25550FFF74EFF2346F218AF
:10B0FC00514623460B441B7819461046FFF744FF74
:10B10C0000BF2846FDF72AFA80462846FDF726FAA6
:10B11C00034688EA030303F04003002BF1D101340A
:10B12C000135B4F5007FD2DB00BFBDE8F08700BF6E
:10B13C008C280020CC340020F42A0020B0B500AFBD
:10B14C0004460D4622461E4B1B685A401D4B1B697C
:10B15C001340002B07D02246194B1A601A4B9B6ADE
:10B16C00224610469847174B9B8A1C40174B5B8A0C
:10B17C001C4417492A02E3B21343CB601549E3433D
:10B18C00DB1103F04002231203F03F03134343F49B
:10B19C00664343F08003CB600D4B4FF033325A6063
:10B1AC0000BF00BF0B4B4FF400425A61094B4FF4E8
:10B1BC0000421A61064B4FF044325A6000BFB0BDDA
:10B1CC000C350020CC340020AC2A00208C28002028
:10B1DC00000C0140000801402DE9F04700AF824609
:10B1EC008846FDF75FF94FEA4826414B5B8A1A46C1
:10B1FC00404B9B8A3340D5184FEAD80408F0070817
:10B20C003D4B1B5D43FA08F303F00103002B2FD1D8
:10B21C00AA2145F25550FFF791FF552142F6AA207D
:10B22C00FFF78CFF802145F25550FFF787FFAA21CD
:10B23C0045F25550FFF782FF552142F6AA20FFF741
:10B24C007DFF334630211846FFF778FF00BF2846B4
:10B25C00FDF702FA81462846FDF7FEF9034689EA16
:10B26C00030303F04003002BF1D1234BFF221A55AB
:10B27C00214B1B5D5AB2012303FA08F35BB2DB438B
:10B28C005BB213405BB2DAB21B4B1A55002429E0B7
:10B29C00AA2145F25550FFF751FF552142F6AA203D
:10B2AC00FFF74CFFA02145F25550FFF747FF23460F
:10B2BC00334418465246234613441B781946FFF76D
:10B2CC003DFF00BF2846FDF7C7F980462846FDF72D
:10B2DC00C3F9034688EA030303F04003002BF1D1C2
:10B2EC0001340135B4F5007FD2DB00BFBDE8F08737
:10B2FC008C280020CC34002068360020F8B500AF34
:10B30C000646C5256C03174AB301134410331B685A
:10B31C0003F08003002B08D0124AB30113441C33F2
:10B32C001B680020984703461AE00E4AB3011344E9
:10B33C001C331B68284698470B4B0C4A1A61282073
:10B34C00FDF70CF8084B9B6803F400535C40640851
:10B35C006D08002DE9D1002C0CBF01230023DBB2BA
:10B36C001846F8BD98E00008000801402800540079
:10B37C002DE9F04100AF05460E462D0136010024A3
:10B38C004FF000081EE0134905F010034FF4802223
:10B39C001A4106F010034FF4002040FA03F3134354
:10B3AC0043F4A00343F020030B616D0876082820BA
:10B3BC00FCF7D4FF6408074B9B6803F400531C4351
:10B3CC0008F10108B8F1070FDDDDA3091846BDE847
:10B3DC00F08100BF000801402DE9F04782B000AFBA
:10B3EC00604BFF221A70604B5B7A1A460123934024
:10B3FC0098461FFA88F3013B9AB25C4B9A825A4BDF
:10B40C005B7A0A3B9946584B9B7A1A46564B5B7AA9
:10B41C0002FA03F39AB2564B5A82534B5A7A544B54
:10B42C005A76514B1B7A1A46012393401C464AE02C
:10B43C00002645E04C4B9B6AA21910469847002504
:10B44C0012E04C4B1B684A4A528A10464A494FEA52
:10B45C0009122A4431F81220024410469847034638
:10B46C00DAB2464B5A5501350F2DEAD93E4B9B6A41
:10B47C0030469847002520E0404B5B5D9A463D4B9B
:10B48C001B683B4A528A10463B494FEA09122A4430
:10B49C0031F8122002441046984703469A450BD0C7
:10B4AC00230BDAB2324B5A712319A3EB080343F086
:10B4BC0000432E4A13610BE001350F2DDCD94644B5
:10B4CC00A642B7D364084445B2D8264B00221A7062
:10B4DC00284B1B682A4A93423FD00020FDF7BCF84A
:10B4EC000346FB710120FDF7B7F80346BB71FB79EE
:10B4FC00DB4319460020FDF7DFF8FB7919460120E4
:10B50C00FDF7DAF80020FDF7A7F80346DBB2DB43C2
:10B51C007B717A79FB799A4214D1134B1B78002BEF
:10B52C000FD0052B0DD0124B5B79B3FA83F3DBB242
:10B53C00C3F12603DAB20E4BDA720D4B00225A71AC
:10B54C0000E000BFFB7919460020FDF7B5F8BB7988
:10B55C0019460120FDF7B0F800E000BF0837BD46E2
:10B56C00BDE8F087782C0020AC2A0020CC340020D9
:10B57C008C2800202C35002078DF00081C3500209A
:10B58C00698500082DE9F04700AF3D4BFF221A708A
:10B59C003C4B9B791A460123934098461FFA88F33B
:10B5AC00013B9AB2384B1A81364B9B790D3B99462D
:10B5BC00344B9A79354B1A76324BDB791A46314B30
:10B5CC009B7902FA03F39AB2304B1A822D4B5B79BA
:10B5DC001A46012393401C4648E0002643E0294BC1
:10B5EC005B6AA21910469847002511E0274B1B8A6D
:10B5FC001946274A4FEAC9032B4432F813300B443F
:10B60C001846FCF7ABFF0346DAB2224B5A5501350C
:10B61C00072DEBD91B4B5B6A3046984700251FE082
:10B62C001C4B5B5D9A46194B1B8A1946184A4FEA0C
:10B63C00C9032B4432F813300B441846FCF78EFF29
:10B64C0003469A450BD0630BDAB2104B1A712319CF
:10B65C00A3EB080343F000430B4A53600EE00135A3
:10B66C00072DDDD94644A642B9D364084445B4D865
:10B67C00064B02221A71024B00221A70BDE8F087A9
:10B68C00EA360020AC2A0020CC3400208C28002084
:10B69C00F8DF00081C3500202DE9F04188B000AF20
:10B6AC009B4B5B88002B00F02C81994B1B791A4625
:10B6BC00022393407B6140F2FF154FF0FF3415E0FD
:10B6CC00934B1B6A224610469847E343C3F30C0383
:10B6DC008F4A528853403B613B691846FCF73EFF4A
:10B6EC000346DAB28B4B5A556400013D7B6923400B
:10B6FC00002BE5D1884B002283F83520002400264E
:10B70C004FF0FF33FB6140F2FF150023BB616FF07C
:10B71C00010843E06FEA0803C3F30C037C4A528828
:10B72C005340FB60FB69DB43C3F30C03784A52883C
:10B73C005340BB60764B1B6AFA6910469847BA684F
:10B74C00744B5B5DDB4319461046FCF73BFF704BBB
:10B75C001B6A424610469847FA686E4B5B5D194669
:10B76C001046FCF72FFF6A4B1B6AFA691046984784
:10B77C00BB681846FCF7F2FE0246664B5B5D534015
:10B78C00FF2B05D1FB695B42BA691343BB610136E0
:10B79C004FEA4808FB695B00FB61013D7A69FB6974
:10B7AC001340002BB6D1002E00F0AD805B4B1B89F3
:10B7BC00002B61D0FCF7E4FD584B9B881A4648F6E9
:10B7CC00A04303FB02F31846FCF7C8FD534BDB8880
:10B7DC00002B01D0FCF70EFE504B9B881A4648F606
:10B7EC00A04303FB02F31846FCF7B8FDFCF75AFE26
:10B7FC0040F2FF154FF0FF3838E06FEA0803C3F34F
:10B80C000C03434A528853407B60414B1B6A4246AF
:10B81C0010469847C8F10002BB691340002B0AD0B0
:10B82C007B681846FCF79AFE02463A4B5B5D534028
:10B83C00FF2B00D101347A68364B5B5D19461046FC
:10B84C00FCF7C0FE7B681846FCF788FE0246314BBD
:10B85C005B5D9A4207D0304B93F835300133DAB246
:10B86C002D4B83F835204FEA4808013D7B6908EAE7
:10B87C000303002BC1D100E03446B44212D10D2C8D
:10B88C0005DD0123A3401A46234B9A6103E0224BAA
:10B89C004FF400529A61224B9B7943F00203DAB2C7
:10B8AC001F4B9A71BA691F4B134043F000431A4A5D
:10B8BC00D361E2B21C4B1A70331B9E1F7342DB1711
:10B8CC0003F00F031E40063C6342DB1703F00F032B
:10B8DC001C4023015AB273B213435BB2DAB2104B61
:10B8EC009A72002C10D00A4B5A880D4B9A82062C57
:10B8FC0003DCE3B20633DBB200E00D23084A937697
:10B90C0002E000BF00E000BF2037BD46BDE8F0817B
:10B91C00AC2A0020C8320020CC340020383600205D
:10B92C008C28002000E0FF7FC834002098B500AFC1
:10B93C004FF6FF7410E023461846FCF70FFE034643
:10B94C00002B08D1234600211846FCF73BFE044B84
:10B95C0000221A7003E0013CB4F5004FEBDA98BDFD
:10B96C00C9340020B0B500AF05461E4B33F8153076
:10B97C00002B33D01C4B1B781A461C4B33F812305F
:10B98C00002B15D14FF6FF740FE023461846FCF739
:10B99C00E5FD0346002B07D1134B1B781A46A1B2C9
:10B9AC00124B23F8121003E0013CB4F5004FECDA13
:10B9BC000D4B1B781A460D4B33F8123000211846EC
:10B9CC00FCF700FE074B33F8153029461846FCF7F8
:10B9DC00F9FDEAB2044B1A70002301E04FF0FF337B
:10B9EC001846B0BDC8300020C9340020AC28002057
:10B9FC0080B500AF064B074A1A612820FCF7AEFC55
:10BA0C00034B9B685B0B03F00103184680BD00BF22
:10BA1C0000080140280054002DE9F04786B000AF23
:10BA2C0078613961FA607B81524C534B7B60002505
:10BA3C0048E07B685E192846FFF794FF0346DBB2AB
:10BA4C0033703378002B3CD16619FB681B881A467F
:10BA5C007B8913441A463B69104698470346DBB270
:10BA6C00337005F58073E618FB6802331B881A46A1
:10BA7C007B8913441A463B69104698470346DBB250
:10BA8C00337005F50073E618FB6804331B881A46FF
:10BA9C007B8913441A463B69104698470346DBB230
:10BAAC00337005F54073E618FB6806331B881A469D
:10BABC007B8913441A463B69104698470346DBB210
:10BACC0033700135FF2DB4D97B691B781E46802558
:10BADC0046E04FF0000A3FE06B4203EA0A0303EB37
:10BAEC000A0808EB050979680B4643441A780B469B
:10BAFC004B441B781343DBB2002B2AD104EB080315
:10BB0C001A7804EB09031B789A4200D02E4308F5EF
:10BB1C00807323441A7809F5807323441B789A4266
:10BB2C0000D02E4308F5007323441A7809F50073EE
:10BB3C0023441B789A4200D02E4308F540732344CB
:10BB4C001A7809F5407323441B789A4202D02E438D
:10BB5C0000E000BF0AF1010ABAF17F0FBCD96D08F1
:10BB6C00002DB6D1F2B27B691A7000BF1837BD46F2
:10BB7C00BDE8F087A82C0020C8320020F0B5A1B099
:10BB8C0002AF78604FF4905200213D4801F073FBF6
:10BB9C003C4A3D4B14461D460FCD0FC495E80F0093
:10BBAC0084E80F00394B3A4A1A603A4B3A4A1A6009
:10BBBC003A4B3B4A1A603B4B3B4A1A603B4A3C4B64
:10BBCC0014461D460FCD0FC40FCD0FC40FCD0FC49F
:10BBDC0095E80F0084E80F00364B4FF088321A605E
:10BBEC00354B4FF088321A60344B4FF000425A609C
:10BBFC00324B4FF000421A61304B00229A842F4B8B
:10BC0C0047F6FF721A812D4B41F6FF729A822B4B2D
:10BC1C0041F6FF721A842A4A7B6813600422294970
:10BC2C00184801F00EFB0346002B01D0142200E053
:10BC3C001522254B1A70254A254B104619464FF4F0
:10BC4C0080631A4601F00CFB01212048FCF7ACFA8A
:10BC5C0000241F4B1B5D002B05D0013440F2FE333A
:10BC6C009C42F6DD00E000BF154B1B685D68214669
:10BC7C00184B194A1948A847194B00221A7037E07B
:10BC8C00002800208C28002028E0000830360020F6
:10BC9C0000F000082C3500206586000810350020C7
:10BCAC006985000864360020D1850008AC2A002084
:10BCBC0048E00008982C0020A02C0020CC34002058
:10BCCC003436002000000108B4300020A82C0020DD
:10BCDC0000E80008ADA4000885A4000824DD0008D5
:10BCEC00083500208B4B1B780133DAB2894B1A7064
:10BCFC00884B1B785B0103F1006303F56C431B7CE1
:10BD0C00002B03D0834B1B781F2BEBD9824B9B8CC6
:10BD1C00002B08D0814B1B685C68814B814A4FF427
:10BD2C0080618148A0477C4B9B8B002B08D07B4BC0
:10BD3C001B685C687D4B7E4A4FF480717D48A04740
:10BD4C00754BDB8B002B08D0744B1B685C68774BF6
:10BD5C00794A4FF480717948A0476F4B1B8C002BAC
:10BD6C0016D000240025764A6B01134403331B784C
:10BD7C00203B5E2B00D96034203401357F2DF2DD61
:10BD8C00664B1B685D6821466E4B6F4A6F48A8472F
:10BD9C00614BDB8C002B19D0604B1B685C68634BD0
:10BDAC006B4A10216B48A0475C4B1B685C685F4B6F
:10BDBC00694A4FF400716948A047584B1B685C688E
:10BDCC005A4B674A4FF400716648A047524B5B8B45
:10BDDC00002B07D0514B1B685C68544B624A4C21BA
:10BDEC006248A047624A624BDB6843F08073D360C1
:10BDFC00604A604B1B6843F001031360464B1B8D7C
:10BE0C00002B08D0454B1B685C68484B5A4A4AF2D9
:10BE1C0010015A48A047404B5B8C002B07D13E4B7E
:10BE2C001B8B012B0CD93C4B1B8C002B08D13B4B97
:10BE3C001B685C68524B534A4FF480515248A047E0
:10BE4C00354B1B8B012B43D900237B61324BDA8A98
:10BE5C00314B1B8B13449BB2013B9AB22E4BDA82B3
:10BE6C002D4BDB8A1A4607F1140311461846FCF7D2
:10BE7C004BFF0346002B0DD007F114031846FCF7BB
:10BE8C0071FF03467B617B69002B03D1FDF73EF804
:10BE9C0001F0E6B87B690A2B01D900237B614FF4D2
:10BEAC0000722021394801F0E6F9384C384B2360F8
:10BEBC007B69DBB23033DAB2344B5A71174B1B68E7
:10BECC005C681A4B334A10213348A04701F080B903
:10BEDC00FCF7E8FA314B4FF088325A604FF6FF709E
:10BEEC00FCF73CFB0346DBB2DB43DAB22C4B1A709B
:10BEFC002B4B1B781C464FF6FF70FCF72FFB0346B1
:10BF0C009C4203D1044B02221A839DE700237B67DA
:10BF1C0037E300BF083500203836002034360020C7
:10BF2C0021A60008F9A5000834DD00085B83000891
:10BF3C0005AD000844DD000829AD000854DD0008FB
:10BF4C0000F00008B1A80008ADA7000864DD0008E7
:10BF5C0011A4000874DD00083DA4000884DD00086D
:10BF6C0061A4000894DD0008E1AC0008A4DD000821
:10BF7C00F0ED00E0001000E05DAD0008B4DD00085D
:10BF8C0071A5000849A50008C4DD0008C8320020CE
:10BF9C004552522E85AD0008D4DD0008000C01403E
:10BFAC00F02A00207B6F03F57F43F0331846FCF733
:10BFBC00D5FA034687F83B3097F83B30DB4387F8DC
:10BFCC003A309F4A97F83A301B02D3604FF47A709C
:10BFDC00FCF7C4F997F83B407B6F03F57F43F033D4
:10BFEC0097F83A2011461846FCF7ECFA03469C42A7
:10BFFC0000F0C482934B4FF044321A60924B4FF0D6
:10C00C0033321A60914B9B89002B00F0E98280211E
:10C01C004FF40040FCF7D6FA002449E02046FFF725
:10C02C006DF90346002B42D089498A4AA301134477
:10C03C000D461E460FCE0FC50FCE0FC50FCE0FC52A
:10C04C0096E80F0085E80F00814B5B699847FFF776
:10C05C0099FAFFF7C1F9FFF71FFB02E000BF00E000
:10C06C0000BF7D4B9B795AB2794B1B781B015BB29D
:10C07C0013435BB2DAB2784B9A71774BDB795AB2D5
:10C08C00734B1B785BB223F00F035BB213435BB2B1
:10C09C00DAB2714BDA716E4BDB6A98476D4AA301C9
:10C0AC0013441C331B680120984700F09ABF0134DD
:10C0BC002346132BB2D96649664AA30113440D4695
:10C0CC001E460FCE0FC50FCE0FC50FCE0FC596E86F
:10C0DC000F0085E80F0020214FF4A040FCF772FA06
:10C0EC0055214FF40050FCF7E7FA00214FF4A04023
:10C0FC00FCF768FAAA214FF40050FCF7DDFA202176
:10C10C004FF4A040FCF75EFA4FF40050FCF726FA0F
:10C11C000346DBB23B7400214FF4A040FCF752FA0B
:10C12C004FF40050FCF71AFA0346DBB27B743B7CED
:10C13C00552B40F095807B7CAA2B40F09180AA2156
:10C14C004DF25550FCF73EFA55214AF6AA20FCF761
:10C15C0039FA90214DF25550FCF734FA2820FCF7AF
:10C16C00FDF84FF40040FCF7F9F90346DBB23B74E1
:10C17C0048F20100FCF7F2F90346DBB27B743B7C1E
:10C18C00BF2B6DD17B7CB42B6AD97B7CB72B67D84A
:10C19C007B7CB53B4FF4803202FA03F37B632C4B70
:10C1AC009B791A46012393403B637A6B7B6B134458
:10C1BC002A4A13603B6B9BB2013B9AB2274B1A8104
:10C1CC00234BDB791A46224B9B7902FA03F39AB282
:10C1DC00214B1A821E4B9A791F4B1A761F4B1A68E9
:10C1EC003B6BD31A43F000431C4A53607B6B5B0BD5
:10C1FC00DAB2194B1A71184B00225A71164BFA22EB
:10C20C009A71154B6022DA717B7C5633DBB21B01C1
:10C21C00DAB2114B9A72104B0922DA72F0214FF4F8
:10C22C000040FCF7CFF92820FCF798F80B4B93F85B
:10C23C00373043F00103DAB2084B83F8372010E7AC
:10C24C00000C0140A02C0020982C00203836002037
:10C25C00AC2A002098E000088C280020CC34002068
:10C26C000134C049C04AA30113440D461E460FCEEB
:10C27C000FC50FCE0FC50FCE0FC596E80F0085E882
:10C28C000F000020FCF7E8F90346DBB2DB43DBB21E
:10C29C003B744FF48050FCF7DFF90346DBB2DB4311
:10C2AC00DBB27B743B7C19460020FCF705FA7B7CE7
:10C2BC0019464FF48050FCF7FFF93B7C1D460020DB
:10C2CC00FCF7CAF903469D4240F024817B7C1D4655
:10C2DC004FF48050FCF7C0F903469D4240F01A81A0
:10C2EC0001214FF44040FCF76DF9AA2149F2555059
:10C2FC00FCF768F900214FF44040FCF763F9552135
:10C30C004AF6AA20FCF75EF901214FF44040FCF7F5
:10C31C0059F9902149F25550FCF754F92820FCF7B3
:10C32C001DF800214FF44040FCF74CF94FF400404D
:10C33C00FCF714F90346DBB23B7448F20100FCF73E
:10C34C000DF90346DBB27B743B7CBF2B40F0E280E3
:10C35C007B7CB42B40F2DE807B7CB72B00F2DA8046
:10C36C007B7CB53B4FF4803202FA03F3FB627D4BCE
:10C37C009B791A4601239340BB62FA6AFB6A134409
:10C38C007A4A1360BB6A9BB2013B9AB2774B1A8113
:10C39C00744BDB791A46734B9B7902FA03F39AB20E
:10C3AC00734B1A826F4B9A79714B1A766F4B1A68D2
:10C3BC00BB6AD31A43F000436C4A5360FB6A5B0BB5
:10C3CC00DAB26B4B1A716A4B00225A71684BE2223B
:10C3DC009A71674B1022DA717B7C5633DBB21B01EE
:10C3EC00DAB2634B9A7200214FF44040FCF7EAF842
:10C3FC0055210020FCF760F960214FF44040FCF718
:10C40C00E1F8AA210020FCF757F900214FF4404035
:10C41C00FCF7D8F80020FCF71FF90346DBB23B749D
:10C42C0060214FF44040FCF7CDF80020FCF714F9E4
:10C43C000346DBB27B743B7C552B06D17B7CAA2B51
:10C44C0003D14B4B0922DA7202E0494B0722DA7214
:10C45C004FF40050FCF700F90346DBB2DB43DBB2D0
:10C46C003B744FF44050FCF7F7F80346DBB2DB4368
:10C47C00DBB27B743B7C19464FF40050FCF71CF983
:10C48C007B7C19464FF44050FCF716F93B7C1D465B
:10C49C004FF40050FCF7E0F803469D420CD17B7C36
:10C4AC001D464FF44050FCF7D7F803469D4203D18C
:10C4BC002F4BEB229A7108E02046FEF71FFF034634
:10C4CC00002B02D02A4BEA229A71294B9B7903F05C
:10C4DC000803002B0CD06C213520FEF749FF0346D6
:10C4EC00352B05D1224B9B79013BDAB2204B9A714B
:10C4FC00F0214FF40040FCF765F82820FBF72EFFE5
:10C50C001A4B93F8373043F00103DAB2174B83F828
:10C51C003720A6E501341349134AA30113440D46F1
:10C52C001E460FCE0FC50FCE0FC50FCE0FC596E80A
:10C53C000F0085E80F00FFF725F8FEF74DFF0C4BB9
:10C54C001A790C4B1B781340DAB2094B59790A4B08
:10C55C001B780B40DBB21343DBB2002B7FF47EADB8
:10C56C0001343EE0AC2A002098E00008CC340020D6
:10C57C008C280020EA360020782C00207B6F0133B9
:10C58C007B677B6F0F2B7FF60DAD552145F2052098
:10C59C00FCF718F8AA2145F20620FCF713F845F22F
:10C5AC000520FBF7DBFF0346722B08D145F2062072
:10C5BC00FBF7D4FF0346382B01D1062434E59A4B04
:10C5CC004FF044321A60994B5B891A464FF0113385
:10C5DC0003FB02F303F133331A46954B1A6000E068
:10C5EC0000BF924BDB89002B77D00120FDF7AEFE0C
:10C5FC006C213520FEF7BCFE0346352B43D148F2A7
:10C60C000100FDF7A3FE6C213520FEF7B1FE0346B9
:10C61C006C2B3AD1874B4FF400221A60854B4FF4A8
:10C62C000022DA60834B47F6FF721A81814B41F688
:10C63C00FF729A827F4B804A5A607E4B7F4A1A6106
:10C64C007F4B804A5A627E4B7F4A9A627F4B4FF4F3
:10C65C0000421A827D4B00225A827C4B20221A7196
:10C66C007A4B40225A71794BA0229A71774BE02277
:10C67C00DA71734B764A03F1300413460FCB84E81E
:10C68C000F0000F0AEBC00BF00E000BF17246C49E7
:10C69C00704AA30113440D461E460FCE0FC50FCE94
:10C6AC000FC50FCE0FC596E80F0085E80F00FEF7FB
:10C6BC0069FFFEF791FE654B1A79674B1B781340A7
:10C6CC00DAB2624B5979654B1B780B40DBB21343E2
:10C6DC00DBB2002B7FF4C4AC0134594A604B1446D6
:10C6EC001D460FCD0FC40FCD0FC40FCD0FC495E851
:10C6FC000F0084E80F004D4B1B8A002B00F0428486
:10C70C00584B01221A70FFF711F9564B1B78002B6E
:10C71C000CD0554A554B15461C460FCC2860696009
:10C72C00AA60EB6020682861FFF7ECBB4FF48073C4
:10C73C003B674FF44043FB6625E0FB6E43F400433C
:10C74C001846FBF70BFF034687F8273097F827307E
:10C75C00474A32F81330002B12D197F82720FB6E82
:10C76C001BB26FEA43436FEA53431BB299B2404B7F
:10C77C0023F812103B6F013B3B673B6F002B07D03C
:10C78C00FB6E0133FB66FB6EB3F5A03FD5DB00E01F
:10C79C0000BF2B4B374A5A61002414E000250FE0F0
:10C7AC00231D354A98186B00344A1A44A3B25B0314
:10C7BC009BB2A3F500439BB23149FFF72DF9043529
:10C7CC00072DEDDD0134032CE8DD002412E00025FB
:10C7DC000DE004F10803284A98186B00294A1A4402
:10C7EC00A3B29B029BB22849FFF716F904350B2D17
:10C7FC00EFDD0134072CEADD0023204A23492448CD
:10C80C00FFF70AF90023BB6600240EE3630103F172
:10C81C00006303F56C43DA78174BDB789A4240F0EF
:10C82C00FC82042551E000BFA02C002038360020EB
:10C83C00982C0020CC3400200080078000E007807A
:10C84C00AC2A0020C9A3000859A300088C2800209A
:10C85C00E4DD000898E00008EA360020782C00207F
:10C86C0048E00008C9340020C8320020F8DD000878
:10C87C00C830002039B90008B8300020F8DF0008B3
:10C88C006985000878DF000865860008FDB9000896
:10C89C00BB300020630103F1006303F56C435B5D67
:10C8AC00DB43B84A525D1340002B40F0BD8263015C
:10C8BC0003F1006303F56C435B5D002B04D0B14BBB
:10C8CC005B5D002B00F0B08201350F2DE2D96301C6
:10C8DC0003F1006303F56C435B7887F8673097F8D6
:10C8EC00673003F0030387F8263097F8263043F0BF
:10C8FC00040387F8663097F8673003F00C03042BB9
:10C90C0014D00C2B22D10F2387F863309D4B1A794E
:10C91C009C4B5B791343DAB29A4B9B791343DAB293
:10C92C00984BDB79134387F8653018E00E2387F8B2
:10C93C00633097F86630934AD25C97F866300133CF
:10C94C009049CB5C134387F8653008E00D2387F8DA
:10C95C00633097F866308B4AD35C87F865300023D8
:10C96C0087F86230002387F861300023FB65630190
:10C97C0003F1006303F56C4397F866209B5C87F822
:10C98C005B3097F85B30002B73D097F96530DB4345
:10C99C005AB297F95B3013405BB287F865300123CC
:10C9AC007B6597F865207B6D1340002B20D197F8A1
:10C9BC005B3003F00103DBB2002B0CD097F8623034
:10C9CC00013387F862307B6D5AB297F961301343AB
:10C9DC005BB287F861307B6D5B007B6597F85B30F1
:10C9EC005B0887F85B3097F85B30002BD9D100E0FF
:10C9FC0000BF97F86230002B00F011824FF4807268
:10CA0C000021614800F037FC00233B652CE097F8CF
:10CA1C0061203B6D134003F580735C4AD35C002BA3
:10CA2C001FD15B4A3B6D32F81330002B19D097F8AD
:10CA3C0061203B6D134003F58073544A0121D1549E
:10CA4C003B6DD9B2534AFB6D13440A461A70FB6D09
:10CA5C000133FB6597F8623001229A40FB6D9A42D4
:10CA6C0006DD3B6D01333B653B6DFF2BCFDD00E0FD
:10CA7C0000BF002387F84F3097F867301B0987F801
:10CA8C00673097F86730072B09D997F867303D4A1C
:10CA9C00D35C87F84F300A2387F8643085E097F829
:10CAAC006730032B21D997F867305B0087F8673024
:10CABC00002387F8663010E097F8672097F8663007
:10CACC001344304AD25C97F84F30134387F84F30F9
:10CADC0097F86630013387F8663097F86630012B8B
:10CAEC00EAD90B2387F864305FE097F86730012BA5
:10CAFC0021D997F867309B0087F86730002387F8B7
:10CB0C00663010E097F8672097F8663013441D4A9A
:10CB1C00D25C97F84F30134387F84F3097F8663054
:10CB2C00013387F8663097F86630032BEAD90C236B
:10CB3C0087F8643039E097F86730002B2CD097F8E1
:10CB4C006730DB0087F86730002387F8663010E029
:10CB5C0097F8672097F8663013440A4AD25C97F826
:10CB6C004F30134387F84F3097F86630013387F80E
:10CB7C00663097F86630072BEAD90D2387F86430B6
:10CB8C0013E000BFB8300020C8330020C8320020AA
:10CB9C00C8300020782B0020082387F8673000234A
:10CBAC0087F84F300D2387F86430002387F84E3018
:10CBBC00002387F84D300023BB64630103F100634D
:10CBCC0003F56C4397F867209B5C87F85B3097F80C
:10CBDC005B30002B73D097F94F30DB435AB297F987
:10CBEC005B3013405BB287F84F3001237B6497F8BE
:10CBFC004F207B6C1340002B20D197F85B3003F057
:10CC0C000103DBB2002B0CD097F84E30013387F8C0
:10CC1C004E307B6C5AB297F94D3013435BB287F8A8
:10CC2C004D307B6C5B007B6497F85B305B0887F85E
:10CC3C005B3097F85B30002BD9D100E000BF97F840
:10CC4C004E30002B00F0ED804FF480720021B14883
:10CC5C0000F011FB00233B642CE097F84D203B6C5B
:10CC6C00134003F58073AC4AD35C002B1FD1AB4A45
:10CC7C003B6C32F81330002B19D097F84D203B6CDD
:10CC8C00134003F58073A44A0121D1543B6CD9B2F3
:10CC9C00A34ABB6C13440A461A70BB6C0133BB64C9
:10CCAC0097F84E3001229A40BB6C9A4206DD3B6CE1
:10CCBC0001333B643B6CFF2BCFDD00E000BF97F8EA
:10CCCC006330FA6D02FA03F33B6297F86430BA6C86
:10CCDC0002FA03F3FB613A6AFB691A44BB6E9A428F
:10CCEC0040F3A1803A6AFB691344BB66630103F10C
:10CCFC00006303F56C4303F110028A4B03F130051A
:10CD0C001346186859689A68DB680FC5630103F10C
:10CD1C00006303F56C431B781B01DAB2824B9A71EA
:10CD2C00630103F1006303F56C431B7823F00F03DD
:10CD3C00DAB27D4BDA71FB6D002B31D03B6A9B1361
:10CD4C00DAB2794B1A7197F86330012202FA03F3C5
:10CD5C003A6AD31A43F00043744A536097F863302D
:10CD6C00012202FA03F39BB2013B9AB26F4B1A8178
:10CD7C0097F826309BB204339BB25B039AB26A4B92
:10CD8C001A82694A97F86330137697F86230012259
:10CD9C0002FA03F3DBB2013BDAB2644B9A7202E0A3
:10CDAC00614B02221A7197F86730002B31D0FB6966
:10CDBC005B13DAB25C4B5A7197F86430012202FAB9
:10CDCC0003F3FA69D31A43F00043584A136197F8F6
:10CDDC006430012202FA03F39BB2013B9AB2534B2B
:10CDEC009A8297F867309BB2083B9BB29B029AB22F
:10CDFC004D4B5A824C4A97F86430537697F84E3024
:10CE0C00012202FA03F3DBB2013BDAB2474B9A750B
:10CE1C000AE0454B00225A7106E000BF04E000BF57
:10CE2C0002E000BF00E000BF0134414B1B78A3427D
:10CE3C003FF6ECAC3C4B9B791B09DBB203F00F02C9
:10CE4C00394BDB7903F0F00313430D2B00F0968084
:10CE5C001E2B40F09880FEF71FFC334B9B7903F0A0
:10CE6C000203002B0DD0304B9B7903F02F03DAB269
:10CE7C002D4B9A712C4BDB7903F00F03DAB22A4B52
:10CE8C00DA71284B93F83A30332B03D1264B092215
:10CE9C00DA7202E0244B0722DA72E1214FF40050DF
:10CEAC00FBF70AFC96214FF41050FBF705FC4B21C5
:10CEBC004FF42050FBF700FC3C214FF43050FBF7B3
:10CECC00FBFB4FF40050FBF7C7FB0346E12B31D1C2
:10CEDC004FF41050FBF7C0FB0346962B2AD14FF4AE
:10CEEC002050FBF7B9FB03464B2B23D14FF43050AA
:10CEFC00FBF7B2FB03463C2B1CD10A4B342283F8C4
:10CF0C003E20094B9B7943F00903DAB2064B9A7128
:10CF1C0021E000BFC8330020C8320020C8300020F8
:10CF2C0030350020AC2A00208C280020CC34002086
:10CF3C0008350020A84B93F83E304D2B0BD1A74B56
:10CF4C009B795BB223F009035BB243F008035BB23D
:10CF5C00DAB2A24B9A71A14B9B7903F00803002B18
:10CF6C000CD06C213520FEF703FA0346352B05D186
:10CF7C009A4B9B79013BDAB2984B9A71974B0022F2
:10CF8C005A7100E000BF954B1B79022B29D1944BB1
:10CF9C005B8A002B25D00023FB631AE0914AFB6BC4
:10CFAC00083332F8133003F500431846FBF7D6FA72
:10CFBC0004468C4AFB6B083332F8133003F54043BC
:10CFCC001846FBF7CBFA03469C4209D1FB6B0133A5
:10CFDC00FB63FB6B072BE1DD804B01221A7100E038
:10CFEC0000BF7E4B1B799B031A467F4B1A607B4B11
:10CFFC005B795B031A467C4BDA606C213520FEF7BB
:10D00C00B7F90346352B05D1744B9B790133DAB252
:10D01C00724B9A71724B9B8A002B21D00023FB60C0
:10D02C0014E007F10C031846FBF79CFE0346002B9B
:10D03C000CD16D4B93F82E3000211846FBF71EFCDB
:10D04C000346002B02D1FBF761FF09E007F10C034B
:10D05C004FF0FF311846FBF757FE0346002BE0D18B
:10D06C00624B00221A80624B5C4A1A60614BBB61B6
:10D07C000121B869FDF794FB584BDB7903F00803E9
:10D08C00002B17D1082413E0544B1B5D002B0ED042
:10D09C00534B1B8B002B07D0504BDB7943F0080311
:10D0AC00DAB24E4BDA7102E04C4B00221A550134C5
:10D0BC000F2CE9DD4F4A484B02F1800403F1300597
:10D0CC000FCD20606160A260E3600C2220214A48F1
:10D0DC0000F0D1F8474B402283F89C20454B21228D
:10D0EC0083F89D209E24434BE0183C4B9B791B09F5
:10D0FC00DBB21A46394BDB7903F0F0031A43374B9A
:10D10C001B7A1B0203F470631A43374B1968364BB6
:10D11C00DB6800930B46394900F0B6F803461C4413
:10D12C00344B2344C4F500722021184600F0A3F8B8
:10D13C002A4B9B7903F00203002B0CD02D4BE018EB
:10D14C002F4B1B781A46012393401A462D4900F0A9
:10D15C009BF803461C442C4B1B685C68224B1A68DA
:10D16C00214BDB68134403F11001284B284A294852
:10D17C00A0471A4B9B7903F00203002B08D0224BDB
:10D18C001B685C68184B9969234B244A2448A047B8
:10D19C00154B93F8373003F00103002B08D01A4BD2
:10D1AC001B685C68104B19681E4B184A1E48A04738
:10D1BC000D4B93F8373003F00203002B08D0124BC1
:10D1CC001B685C68084BD968184B104A1848A04774
:10D1DC007C37BD46F0BD00BFAC2A00208C28002057
:10D1EC0038360020F8DF0008CC340020E836002068
:10D1FC0030360020C8320020583300200CDE0008E6
:10D20C00C834002040DE0008343600205B83000860
:10D21C0085AD0008D4DD00082DAF0008C1AE0008B4
:10D22C0050DE000825B0000860DE0008E5B10008FB
:10D23C0070DE000880B400AF00231846BD4680BCE9
:10D24C00704710B501390244904201D1002010BD45
:10D25C0010F8013B11F8014FA342F5D0181B10BD7B
:10D26C0010B5431E0A44914200D110BD11F8014B78
:10D27C0003F8014FF7E703460244934200D170478D
:10D28C0003F8011BF9E700000EB44FF4027100B56E
:10D29C009CB0ADF814106FF00041049107914FF65B
:10D2AC00FF711DAB02900690084853F8042BADF8A3
:10D2BC001610006802A9019300F080F80022029B6E
:10D2CC001A701CB05DF804EB03B070470028002006
:10D2DC00F0B5037833B1034618465E1C1B7833B99E
:10D2EC001846F0BD0B78002B18BF0020F0BD4D1E6A
:10D2FC00441E15F8012F002AF3D014F8017F334691
:10D30C009742F6D0E8E72DE9F0478E6882469E42B8
:10D31C000C469146984635D88A8912F4906F31D0D4
:10D32C000223256809696F1A656905EB450595FBAC
:10D33C00F3F508F101033B449D4238BF1D465305EC
:10D34C0031D5294600F03AFB064650B90C23CAF8F1
:10D35C000030A3894FF0FF3043F04003A381BDE8B8
:10D36C00F0873A462169FFF77BFFA38923F490638A
:10D37C0043F08003A38126613E44266046466561E6
:10D38C00ED1BA560464528BF4646494632462068F7
:10D39C0000F0AEFAA36800209B1BA36023681E4418
:10D3AC002660BDE8F0872A4600F066FB064600289A
:10D3BC00E1D12169504600F0B5FAC7E72DE9F04FED
:10D3CC009DB003938B8980461C060D4616460FD5DF
:10D3DC000B696BB9402100F0F1FA2860286128B97B
:10D3EC000C23C8F800304FF0FF30C4E040236B61D1
:10D3FC000023099320238DF8293030234FF0010BA3
:10D40C008DF82A3037463C4614F8013B002B3CD1B2
:10D41C00B7EB060A0BD05346324629464046FFF777
:10D42C0072FF013000F0A280099B534409933B78B2
:10D43C00002B00F09B8000234FF0FF3204930793E6
:10D44C00059206938DF853301A9305222178504893
:10D45C0000F040FA671C049BD8B9D90644BF2022BF
:10D46C008DF853201A0744BF2B228DF853202278B5
:10D47C002A2A16D000210A20079A27463B78013425
:10D48C00303B092B50D9C9B111E0252BC0D0274610
:10D49C00B9E73F4A3C46801A0BFA00F01843049057
:10D4AC00D3E7039A111D12680391002A01DB07923E
:10D4BC0004E0524243F00203079204933B782E2B74
:10D4CC000DD17B78791C2A2B32D1039B02371A1D84
:10D4DC001B680392002BB8BF4FF0FF3305932D4C04
:10D4EC0003223978204600F0F5F938B14023001BAF
:10D4FC0003FA00F0049B01370343049339780622A6
:10D50C0025487E1C8DF8281000F0E4F9002835D051
:10D51C00224BFBB9039B073323F007030833039318
:10D52C00099B4B4409936DE700FB02320121A4E7F0
:10D53C0000230A24184605930F463A780131303AF5
:10D54C00092A03D9002BCAD00590C8E704FB002098
:10D55C000123F1E703AB00932A46114B04A9404683
:10D56C00AFF30080B0F1FF3F8146D9D1AB895B06A8
:10D57C003FF539AF09981DB0BDE8F08F03AB0093B0
:10D58C002A46074B04A9404600F084F8EAE700BF9E
:10D59C0098E600089EE60008A2E6000800000000DD
:10D5AC0013D300082DE9F04791461F468A680B6992
:10D5BC0006469342B8BF1346C9F8003091F8432091
:10D5CC000C46DDF8208012B10133C9F80030236815
:10D5DC00990642BFD9F800300233C9F800302568EB
:10D5EC0015F0060507D104F1190AE368D9F80020F3
:10D5FC009B1A9D422ADB94F843302268003318BFF3
:10D60C00012392062FD404F1430239463046C04719
:10D61C00013022D02368E56803F00603042B18BF01
:10D62C000025D9F800204FF0000908BFAD1AA368F7
:10D63C00226908BF25EAE5759342C4BF9B1AED1811
:10D64C001A344D451BD10020BDE8F087012352460A
:10D65C0039463046C047013003D14FF0FF30BDE8AA
:10D66C00F0870135C1E73020E11881F843005A1CDE
:10D67C0094F845102244023382F84310C3E7012387
:10D68C00224639463046C0470130E6D009F101093F
:10D69C00D7E700002DE9F04317460A7E85B06E2AC5
:10D6AC00984606460C460C9B01F1430E00F0BC80DC
:10D6BC001AD8632A2ED00AD8002A00F0C880582A1B
:10D6CC0000F08A8004F1420584F842202AE0642AA2
:10D6DC0001D0692AF6D121681A6811F0800F23D085
:10D6EC00111D1960136827E0732A00F0B48008D864
:10D6FC006F2A2AD0702AE5D10A6842F020020A600B
:10D70C0003E0752A21D0782ADCD178226F4984F87D
:10D71C00452064E01A6801F14205111D1960136877
:10D72C0084F842300123A3E011F0400F02F1040110
:10D73C001960D7D0B2F90030002B03DA2D225B42EE
:10D74C0084F8432062490A2217E02068196810F017
:10D75C00800F03D0081D18600B6806E010F0400F16
:10D76C0001F104001860F7D00B886F2A14BF0A224D
:10D77C0008225749002084F843006568002DA560F5
:10D78C00C0F29C80206820F004002060002B3FD168
:10D79C00002D40F095807546082A0BD12368DA07D6
:10D7AC0008D5236962689A42DEBF302305F8013C34
:10D7BC0005F1FF35AEEB05032361CDF800803B4648
:10D7CC0003AA21463046FFF7EDFE013055D14FF04C
:10D7DC00FF3005B0BDE8F08381F845203C49226854
:10D7EC00186812F0800F00F104051D6001D0036869
:10D7FC0002E05506FBD50388D00744BF42F0200257
:10D80C0022601BB9226822F0200222601022B1E7AC
:10D81C007546B3FBF2F002FB1033CB5C05F8013D0F
:10D82C0003460028F5D1B7E708681A6810F0800F96
:10D83C00496904D0101D18601368196007E010F0D6
:10D84C00400F02F1040018601368F6D01980002311
:10D85C0075462361B1E71A68111D1960156800211E
:10D86C006268284600F036F808B1401B60606368B7
:10D87C002361002384F843309FE723692A46394605
:10D88C003046C0470130A2D023689B0707D500253E
:10D89C0004F11909E368039A9B1A9D4205DBE068C1
:10D8AC00039B9842B8BF184693E701234A46394672
:10D8BC003046C04701308AD00135EBE7002BA7D1A9
:10D8CC000B7804F1420584F8423065E7BAE60008AB
:10D8DC00A9E6000810B5C9B202449042034601D132
:10D8EC00002010BD1C7801308C42F6D1184610BDBA
:10D8FC00884210B501EB020303D8421E99420CD1A9
:10D90C0010BD9842F9D28118D21AD34200D110BD61
:10D91C0013F8014D01F8014DF7E711F8014B02F82E
:10D92C00014FEBE738B50546002943D051F8043CCC
:10D93C000C1F002BB8BFE41800F0D4F81E4A136873
:10D94C00104633B9636014602846BDE8384000F0D7
:10D95C00CAB8A3420BD921686218934201BF1A6856
:10D96C005B685218226063600460EDE713465A68E6
:10D97C000AB1A242FAD919685818A0420BD12068F2
:10D98C000144581882421960DED110685268014473
:10D99C0019605A60D8E702D90C232B60D4E72068B1
:10D9AC0021188A4201BF116852680918216062600F
:10D9BC005C60C9E738BD00BF8028002070B5CD1C65
:10D9CC0025F0030508350C2D38BF0C25002D064617
:10D9DC0001DBA94203D90C233360002070BD00F099
:10D9EC0081F8234A1468214691B9224C23681BB94B
:10D9FC00304600F067F820602946304600F062F8A7
:10DA0C00431C26D10C233046336000F06CF8E4E75D
:10DA1C000B685B1B1AD40B2B0FD90B60CC18CD5099
:10DA2C00304600F060F804F10B00231D20F00700D5
:10DA3C00C31A1BD05A42E25070BD8C420BBF6368B4
:10DA4C004B681360636018BF0C46E9E70C464968E5
:10DA5C00CAE7C41C24F00304A04205D0211A3046A6
:10DA6C0000F030F80130CDD02560D9E770BD00BF93
:10DA7C008028002084280020F8B5074614460E465E
:10DA8C0021B91146BDE8F840FFF798BF22B9FFF75E
:10DA9C0049FF25462846F8BD00F026F884420FD9E8
:10DAAC0021463846FFF78AFF05460028F2D031465A
:10DABC002246FFF7D5FB31463846FFF733FFE9E73F
:10DACC003546E7E738B50023054C05460846236084
