:020000040800F2
:101000000050002059780008E5650008F1650008E7
:10101000F7650008FD650008036600080000000091
:101020000000000000000000000000000966000849
:1010300015660008000000002166000839660008F7
:10104000A1780008A1780008A1780008A17800081C
:10105000A1780008A1780008A1780008A17800080C
:10106000A1780008A1780008A1780008A1780008FC
:10107000A1780008A1780008A1780008A1780008EC
:10108000A1780008A1780008A1780008A1780008DC
:1010900051660008A1780008A1780008A17800082E
:1010A000A1780008A1780008A1780008A1780008BC
:1010B000A1780008A1780008A1780008A1780008AC
:1010C000A1780008A1780008A1780008A17800089C
:1010D000A1780008A1780008A1780008A17800088C
:1010E000A1780008A1780008A1780008000000009D
:1010F00000000000000000000000000000000000F0
:0C11000000000000000000005FF808F193
:10110C0010B5054C237833B9044B13B10448AFF335
:10111C0000800123237010BD080100200000000096
:10112C003079000808B5034B1BB103490348AFF3F2
:10113C00008008BD000000000C0100203079000880
:10114C0080B500AF084A084B1B6843F010031360CE
:10115C00032000F01DF9002000F008F805F0C0F99C
:10116C000023184680BD00BF0020024080B582B02D
:10117C0000AF7860124B1A68124B1B7819464FF46B
:10118C007A73B3FBF1F3B2FBF3F3184600F035F9C5
:10119C000346002B01D001230EE07B680F2B0AD8ED
:1011AC00002279684FF0FF3000F0FDF8064A7B68AA
:1011BC001360002300E0012318460837BD4680BDAC
:1011CC00B0000020040000200000002080B400AF1C
:1011DC00054B1B781A46054B1B681344034A1360D6
:1011EC0000BFBD4680BC704704000020980300205F
:1011FC0080B400AF024B1B681846BD4680BC7047DC
:10120C009803002080B485B000AF78607B6803F051
:10121C000703FB600C4BDB68BB60BA684FF6FF033F
:10122C001340BB60FB681A02BB68134343F0BF63F7
:10123C0043F40033BB60044ABB68D36000BF14376F
:10124C00BD4680BC704700BF00ED00E080B400AF2D
:10125C00044BDB681B0A03F007031846BD4680BC31
:10126C00704700BF00ED00E080B483B000AF0346D0
:10127C00FB71084997F907305B09FA7902F01F02F4
:10128C00012000FA02F241F8232000BF0C37BD46C2
:10129C0080BC704700E100E080B483B000AF03462F
:1012AC003960FB7197F90730002B0BDA0D49FB798C
:1012BC0003F00F03043B3A68D2B21201D2B20B44D2
:1012CC001A7609E0084997F907303A68D2B2120148
:1012DC00D2B20B4483F8002300BF0C37BD4680BC50
:1012EC00704700BF00ED00E000E100E080B489B081
:1012FC0000AFF860B9607A60FB6803F00703FB612C
:10130C00FB69C3F10703042B28BF0423BB61FB69F2
:10131C000433062B02D9FB69033B00E000237B61FD
:10132C000122BB6902FA03F35A1EBB681A407B699F
:10133C009A4001217B6901FA03F3591E7B680B402B
:10134C00134318462437BD4680BC704780B582B025
:10135C0000AF78607B68013BB3F1807F01D3012340
:10136C000FE00A4A7B68013B53600F214FF0FF30BE
:10137C00FFF792FF054B00229A60044B07221A607C
:10138C00002318460837BD4680BD00BF10E000E0C2
:10139C0080B582B000AF78607868FFF733FF00BF8C
:1013AC000837BD4680BD80B586B000AF0346B96036
:1013BC007A60FB7300237B61FFF748FF78617A68E2
:1013CC00B9687869FFF792FF024697F90F3011461A
:1013DC001846FFF761FF00BF1837BD4680BD80B5CA
:1013EC0082B000AF0346FB7197F907301846FFF740
:1013FC003BFF00BF0837BD4680BD80B582B000AF53
:10140C0078607868FFF7A2FF034618460837BD4698
:10141C0080BD000080B483B000AF78607B68042B83
:10142C0006D1094A084B1B6843F00403136005E01E
:10143C00054A054B1B6823F00403136000BF0C37EF
:10144C00BD4680BC704700BF10E000E080B582B0A4
:10145C0000AF78607B68002B01D101230EE07B6824
:10146C005B79DBB2002B05D17B6800221A7178689E
:10147C0005F094F87B6801225A710023184608374E
:10148C00BD4680BD80B48BB000AF7860396000235E
:10149C00FB610023BB6100237B6100233B620023C3
:1014AC003B6100237B6227E101227B6A02FA03F392
:1014BC00FB613B681A68FB691340BB61BA69FB6945
:1014CC009A4240F016813B685B68122B34D0122B89
:1014DC000DD8022B2BD0022B04D8002B31D0012B92
:1014EC001CD048E0032B43D0112B1BD043E0874A80
:1014FC00934226D0854A934206D8854A934220D0FF
:10150C00844A93421DD036E0834A934219D0834AD1
:10151C00934216D0824A934213D02CE03B68DB688E
:10152C003B6228E03B68DB6804333B6223E03B68AA
:10153C00DB6808333B621EE03B68DB680C333B62C4
:10154C0019E03B689B68002B02D104233B6212E03C
:10155C003B689B68012B05D108233B627B68FA69C9
:10156C001A6108E008233B627B68FA695A6102E061
:10157C0000233B6200BFBB69FF2B01D87B6801E0F5
:10158C007B680433FB60BB69FF2B02D87B6A9B0032
:10159C0002E07B6A083B9B003B61FB681A680F21E9
:1015AC003B6901FA03F3DB431A40396A3B6901FAE0
:1015BC0003F31A43FB681A603B685B6803F08053C3
:1015CC00002B00F09680574A564B9B6943F0010361
:1015DC009361544B9B6903F00103BB60BB68524A97
:1015EC007B6A9B08023352F823307B617B6A03F0E1
:1015FC0003039B000F2202FA03F3DB437A691340C7
:10160C007B617B68494A934213D07B68484A93427A
:10161C000DD07B68474A934207D07B68464A934279
:10162C0001D1032306E0042304E0022302E001239A
:10163C0000E000237A6A02F00302920093407A6978
:10164C0013437B6138497B6A9B0802337A6941F802
:10165C0023203B685B6803F48033002B06D03749AA
:10166C00364B1A68BB6913430B6006E03349334BA6
:10167C001A68BB69DB4313400B603B685B6803F47F
:10168C000033002B06D02D492C4B5A68BB691343F1
:10169C004B6006E02949294B5A68BB69DB43134070
:1016AC004B603B685B6803F48013002B06D0234926
:1016BC00224B9A68BB6913438B6006E01F491F4B92
:1016CC009A68BB69DB4313408B603B685B6803F42F
:1016DC000013002B06D01949184BDA68BB69134369
:1016EC00CB6006E01549154BDA68BB69DB43134048
:1016FC00CB607B6A01337B627B6A0F2B7FF6D4AEA7
:10170C0000BF2C37BD4680BC704700BF00002110C5
:10171C0000001110000012100000311000003210F7
:10172C00000022100010024000000140000801409F
:10173C00000C014000100140001401400004014065
:10174C0080B483B000AF78600B467B8013467B700F
:10175C007B78002B03D07A887B681A6103E07B8846
:10176C001A047B681A6100BF0C37BD4680BC7047F9
:10177C00F0B58BB006AF78600023FB607B68002B64
:10178C0001D10123CAE07B6893F82934DBB2002B2A
:10179C0006D17B68002283F82824786804F0AEFF19
:1017AC007B68032283F829247B681B68184601F0A8
:1017BC0021FC7B681B683B607E686D4606F110045B
:1017CC000FCC0FC523682B60331D0ECB386801F08E
:1017DC00E7FB7B681B680021184601F027FC0023FF
:1017EC00FB6037E07A68FB685B0113442933012204
:1017FC001A70FB68D9B27A68FB685B011344283312
:10180C000A461A70FB6899B27A68FB685B0113444C
:10181C0034330A461A807A68FB685B0113442B3315
:10182C0000221A707A68FB685B011344383300227B
:10183C001A607A68FB685B0113443C3300221A601F
:10184C007A68FB6802335B01134400221A60FB6860
:10185C000133FB60FB680E2BC4D90023FB603CE01A
:10186C007A68FB685B01134403F2292300221A7087
:10187C00FB68D9B27A68FB685B01134403F50A7301
:10188C000A461A70FB6899B27A68FB685B011344CC
:10189C0034330A461A807A68FB685B01134403F2FE
:1018AC002B2300221A707A68FB685B01134403F542
:1018BC000E7300221A607A68FB685B01134403F50F
:1018CC000F7300221A607A68FB6812335B011344B1
:1018DC0000221A60FB680133FB60FB680E2BBFD93A
:1018EC007B681B683B607E686D4606F110040FCC6C
:1018FC000FC523682B60331D0ECB386801F0A2FB9B
:10190C007B68002283F824207B68012283F8292439
:10191C007B681B68184602F0A2FB0023184614379C
:10192C00BD46F0BD80B582B000AF78607B6893F89F
:10193C002834012B01D1022316E07B68012283F8A5
:10194C0028240121786805F032FA7B681B68184658
:10195C0002F07BFB7B681B68184601F031FB7B684F
:10196C00002283F82824002318460837BD4680BD82
:10197C0080B582B000AF78607B681B68184602F0B7
:10198C0078FB034603F40043B3F5004F02D17868AB
:10199C0000F006FB7B681B68184602F06AFB0346E6
:1019AC0003F48063B3F5806F12D17B681B687A688F
:1019BC001268B2F8442092B222F4806292B2A3F878
:1019CC004420786804F00FFF0021786800F0D2F80A
:1019DC007B681B68184602F04CFB034603F48043FB
:1019EC00B3F5804F0BD17B681B687A681268B2F82C
:1019FC00442092B222F4804292B2A3F844207B6835
:101A0C001B68184602F035FB034603F40053B3F58C
:101A1C00005F0BD17B681B687A681268B2F84420AF
:101A2C0092B222F4005292B2A3F844207B681B6855
:101A3C00184602F01EFB034603F48053B3F5805F97
:101A4C0026D17B681B687A681268B2F8402092B283
:101A5C0022F0040292B2A3F840207B681B687A68DB
:101A6C001268B2F8402092B222F0080292B2A3F8A7
:101A7C004020786804F0F4FE7B681B687A68126872
:101A8C00B2F8442092B222F4805292B2A3F84420CD
:101A9C007B681B68184602F0ECFA034603F40063FB
:101AAC00B3F5006F31D17B681B687A681268B2F8A5
:101ABC00402092B242F0080292B2A3F840207B6818
:101ACC001B687A681268B2F8442092B222F4006261
:101ADC0092B2A3F844207B681B687A681268B2F84B
:101AEC00402092B242F0040292B2A3F840207B68EC
:101AFC001B68184602F0BDFA034603F48053B3F595
:101B0C00805F02D0786804F091FE7B681B681846F1
:101B1C0002F0AFFA034603F40073B3F5007F0ED165
:101B2C007B681B687A681268B2F8442092B222F47F
:101B3C00007292B2A3F84420786804F046FE7B68E9
:101B4C001B68184602F095FA034603F48073B3F54C
:101B5C00807F0BD17B681B687A681268B2F84420CE
:101B6C0092B222F4807292B2A3F8442000BF0837DC
:101B7C00BD4680BD80B582B000AF78600B46FB706F
:101B8C007B6893F82834012B01D1022313E07B6886
:101B9C00012283F828247B68FA7883F824207B6858
:101BAC001B68FA781146184602F03CFA7B68002252
:101BBC0083F82824002318460837BD4680BD80B51D
:101BCC0084B000AF7860084611461A460346FB7095
:101BDC000B463B801346BB700023FB720023FB605B
:101BEC0097F90330002B08DAFB7803F07F035B01D5
:101BFC0028337A681344FB6008E0FB7803F07F031A
:101C0C005B0103F50A737A681344FB60FB7803F0FD
:101C1C007F03DAB2FB681A7097F90330DBB2DB0989
:101C2C00DBB21A46FB685A703A88FB681A61FB688B
:101C3C00BA78DA707B6893F82834012B01D102232F
:101C4C000EE07B68012283F828247B681B68F96806
:101C5C00184601F031FA7B68002283F82824FB7ABD
:101C6C0018461037BD4680BD80B584B000AF786093
:101C7C000B46FB700023FB6097F90330002B08DA4E
:101C8C00FB7803F07F035B0128337A681344FB6015
:101C9C0008E0FB7803F07F035B0103F50A737A68B5
:101CAC001344FB60FB7803F07F03DAB2FB681A7015
:101CBC0097F90330DBB2DB09DBB21A46FB685A70CA
:101CCC007B6893F82834012B01D102230EE07B684A
:101CDC00012283F828247B681B68F968184601F0F8
:101CEC00ADFC7B68002283F82824002318461037AB
:101CFC00BD4680BD80B586B000AFF8607A603B60B1
:101D0C000B46FB7200237B61FB7A03F07F035B01C4
:101D1C0003F50A73FA6813447B617B697A685A612C
:101D2C007B693A689A617B690022DA617B690022DF
:101D3C005A70FB7A03F07F03DAB27B691A70FB7A74
:101D4C0003F07F03002B06D1FB681B6879691846EA
:101D5C0001F0FCFD05E0FB681B687969184601F091
:101D6C00F5FD002318461837BD4680BD80B483B0FE
:101D7C0000AF78600B46FB70FB7803F00F037A68BA
:101D8C0012335B01134404331B689BB218460C37A7
:101D9C00BD4680BC704780B586B000AFF8607A60F5
:101DAC003B600B46FB7200237B61FB7A03F07F03E5
:101DBC005B012833FA6813447B617B697A685A614A
:101DCC007B693A689A617B690022DA617B6901223E
:101DDC005A70FB7A03F07F03DAB27B691A70FB7AD4
:101DEC0003F07F03002B06D1FB681B68796918464A
:101DFC0001F0ACFD05E0FB681B687969184601F041
:101E0C00A5FD002318461837BD4680BD80B584B0AB
:101E1C0000AF78600B46FB700023FB6097F9033032
:101E2C00002B08DAFB7803F07F035B0128337A6818
:101E3C001344FB6006E0FB785B0103F50A737A68D8
:101E4C001344FB60FB6801229A70FB7803F07F035C
:101E5C00DAB2FB681A7097F90330DBB2DB09DBB23C
:101E6C001A46FB685A707B6893F82834012B01D111
:101E7C0002231CE07B68012283F828247B681B6802
:101E8C00F968184601F0E4FFFB7803F07F03002BA0
:101E9C0008D17B681A687B6803F22C4319461046FC
:101EAC0002F0F8F87B68002283F8282400231846F7
:101EBC001037BD4680BD80B584B000AF78600B464E
:101ECC00FB700023FB6097F90330002B08DAFB78DA
:101EDC0003F07F035B0128337A681344FB6006E050
:101EEC00FB785B0103F50A737A681344FB60FB68AB
:101EFC0000229A70FB7803F07F03DAB2FB681A7049
:101F0C0097F90330DBB2DB09DBB21A46FB685A7077
:101F1C007B6893F82834012B01D102230EE07B68F7
:101F2C00012283F828247B681B68F968184601F0A5
:101F3C00EFFF7B68002283F8282400231846103713
:101F4C00BD4680BD80B582B000AF78600B46FB709B
:101F5C007B6893F82834012B01D102231BE07B68AA
:101F6C00012283F8282497F90330002B09DA7B68C7
:101F7C001A68FB7803F07F031946104601F086F8C7
:101F8C0004E07B681B68184601F08BF87B68002224
:101F9C0083F82824002318460837BD4680BD00006E
:101FAC0090B589B000AF78600023BB610023FB8340
:101FBC000023FB750023FB810023BB8108E3FB8915
:101FCC009BB2DBB203F00F03FB75FB7D002B40F0E3
:101FDC002A81FB899BB203F01003002B4DD17B6847
:101FEC001A687B681B681B889BB223F4E14323F0BF
:101FFC0070039BB213807B682833BB617B681B68C2
:10200C00B3F850309BB21A46BB691B78DB00134403
:10201C0002335B007A681268134403F580631B6813
:10202C009BB2C3F30902BB69DA61BB695A69BB692C
:10203C00DB691A44BB695A610021786804F0AEFB75
:10204C007B6893F82430DBB2002B00F0C182BB69B3
:10205C009B69002B40F0BC827B681B687A6892F805
:10206C002420D2B262F07F02D2B292B2A3F84C20FA
:10207C007B68002283F82420AAE27B6803F50A73AC
:10208C00BB617B681B681B889BB2BB81BB899BB205
:10209C0003F40063002B31D07B681B68B3F850301D
:1020AC009BB21A46BB691B78DB00134406335B00FA
:1020BC007A681268134403F580631B689BB2C3F300
:1020CC000902BB69DA617B6818687B6803F22C41F2
:1020DC00BB699A88BB69DB699BB202F02CF87B6800
:1020EC001A687B681B681B8899B240F68F730B408B
:1020FC009BB21380786804F027FB69E2BB899BB222
:10210C001BB2002B80F264827B681A687B681B68A8
:10211C001B8899B240F68F730B409BB213807B687F
:10212C001B68B3F850309BB21A46BB691B78DB00B6
:10213C00134406335B007A681268134403F580631A
:10214C001B689BB2C3F30902BB69DA61BB69DB692B
:10215C00002B11D07B681868BB695969BB699A88D8
:10216C00BB69DB699BB201F0E6FFBB695A69BB69CD
:10217C00DB691A44BB695A610021786804F0F6FAED
:10218C007B681B68B3F850309BB206335B007A68EF
:10219C001268134403F580633B61BB691B693E2BDA
:1021AC0018D9BB691B695B09BB83BB691B6903F04D
:1021BC001F03002B02D1BB8B013BBB83BB8B9B0250
:1021CC009BB26FEA43436FEA53439BB21A463B6997
:1021DC001A6012E0BB691B695B08BB83BB691B6996
:1021EC0003F00103002B02D0BB8B0133BB83BB8BF1
:1021FC009B029BB21A463B691A607B681B681B8862
:10220C009BB223F4804323F070039CB284F480537C
:10221C009CB284F400539CB27B681A68984B23439D
:10222C009BB21380D4E17B681B681A46FB7D9B0034
:10223C0013441B889BB2BB81BB899BB21BB2002B86
:10224C0080F2D0807B681B681A46FB7D9B001A4489
:10225C007B681B681946FB7D9B000B441B8899B25D
:10226C0040F68F730B409BB21380FB7D5B0103F533
:10227C000A737A681344BB61BB699B7A002B22D129
:10228C007B681B68B3F850309BB21A46BB691B784D
:10229C00DB00134406335B007A681268134403F5C1
:1022AC0080631B689BB2C3F30903FB83FB8B002B7E
:1022BC0073D07B681868BB695969BB699A88FB8BBA
:1022CC0001F039FF69E07B681B681A46BB691B7813
:1022DC009B0013441B889BB203F48043002B22D039
:1022EC007B681B68B3F850309BB21A46BB691B78ED
:1022FC00DB00134402335B007A681268134403F565
:10230C0080631B689BB2C3F30903FB83FB8B002B1D
:10231C002BD07B681868BB695969BB69DA88FB8B61
:10232C0001F009FF21E07B681B68B3F850309BB2C9
:10233C001A46BB691B78DB00134406335B007A68D2
:10234C001268134403F580631B689BB2C3F3090343
:10235C00FB83FB8B002B08D07B681868BB69596921
:10236C00BB691A89FB8B01F0E6FE7B681B681A4679
:10237C00BB691B789B001A447B681B681946BB69B8
:10238C001B789B000B441B8899B240F60F730B40D3
:10239C0099B23C4B0B439BB21380BB69DA69FB8B44
:1023AC001A44BB69DA61BB695A69FB8B1A44BB6975
:1023BC005A61BB699B69002B04D0FA8BBB691B6902
:1023CC009A4206D2BB691B781946786804F0CEF99C
:1023DC0008E0BB691978BB695A69BB699B69786865
:1023EC00FFF788FCBB899BB203F08003002B00F045
:1023FC00EF80FB7D5B0128337A681344BB617B68FB
:10240C001B681A46FB7D9B001A447B681B681946A7
:10241C00FB7D9B000B441B889BB223F4E14323F010
:10242C0070039BB21380BB699B7A002B2CD17B6809
:10243C001B68B3F850309BB21A46BB691B78DB00A3
:10244C00134402335B007A681268134403F580630B
:10245C001B689BB2C3F30902BB69DA61BB69DB6918
:10246C00002B00F083807B681868BB695969BB69D5
:10247C009A88BB69DB699BB201F017FE76E000BF5E
:10248C008080FFFFC080FFFF7B681B681A46BB691A
:10249C001B789B0013441B889BB203F04003002B5A
:1024AC0026D07B681B68B3F850309BB21A46BB69C8
:1024BC001B78DB00134402335B007A681268134408
:1024CC0003F580631B689BB2C3F30902BB69DA6135
:1024DC00BB69DB69002B31D07B681868BB69596913
:1024EC00BB69DA88BB69DB699BB201F0DEFD25E0D4
:1024FC007B681B68B3F850309BB21A46BB691B78DB
:10250C00DB00134406335B007A681268134403F54E
:10251C0080631B689BB2C3F30902BB69DA61BB69B8
:10252C00DB69002B0AD07B681868BB695969BB69E9
:10253C001A89BB69DB699BB201F0B7FD7B681B682C
:10254C001A46BB691B789B001A447B681B681946AA
:10255C00BB691B789B000B441B8899B240F60F7328
:10256C000B4099B2224B0B439BB213807B681B68C8
:10257C00B3F850309BB21A46BB691B78DB0013448E
:10258C0002335B007A681268134403F580631B689E
:10259C009BB2C3F30902BB69DA61BB695A69BB69B7
:1025AC00DB691A44BB695A61BB699B69002B06D174
:1025BC00BB691B781946786804F0F0F808E0BB6931
:1025CC001978BB695A69BB699B697868FFF7E3FBAB
:1025DC007B681B68B3F844309BB21A46FA811BB275
:1025EC00002BFFF6ECAC002318462437BD4690BDFB
:1025FC0080C0FFFF80B487B000AFF8607B600B46F3
:10260C007B8113463B8100237B617B8903F0800334
:10261C00002B08D07B8903F07F035B012833FA6819
:10262C0013447B6106E07B895B0103F50A73FA684E
:10263C0013447B613B89002B07D17B6900229A7282
:10264C007B689AB27B699A800BE07B6901229A7253
:10265C007B689AB27B69DA807B681B0C9AB27B69C7
:10266C001A81002318461C37BD4680BC70470000F9
:10267C0080B586B000AF786000233B617B681B6837
:10268C0003F00103002B00F08780924B5B6803F092
:10269C000C03042B0CD08F4B5B6803F00C03082B42
:1026AC0012D18C4B5B6803F48033B3F5803F0BD1B4
:1026BC00884B1B6803F40033002B6CD07B685B6881
:1026CC00002B68D101232DE27B685B68B3F5803F5A
:1026DC0006D1804A7F4B1B6843F4803313602EE095
:1026EC007B685B68002B0CD17A4A7A4B1B6823F40D
:1026FC0080331360774A774B1B6823F48023136075
:10270C001DE07B685B68B3F5A02F0CD1714A714B4F
:10271C001B6843F4802313606E4A6E4B1B6843F4B2
:10272C00803313600BE06B4A6A4B1B6823F48033D5
:10273C001360684A674B1B6823F4802313607B6823
:10274C005B68002B13D0FEF753FD386108E0FEF7F1
:10275C004FFD02463B69D31A642B01D90323E1E1F7
:10276C005C4B1B6803F40033002BF0D014E0FEF735
:10277C003FFD386108E0FEF73BFD02463B69D31A8A
:10278C00642B01D90323CDE1524B1B6803F40033B6
:10279C00002BF0D100E000BF7B681B6803F0020344
:1027AC00002B63D04B4B5B6803F00C03002B0BD05E
:1027BC00484B5B6803F00C03082B1CD1454B5B6842
:1027CC0003F48033002B16D1424B1B6803F0020339
:1027DC00002B05D07B681B69012B01D00123A1E1E3
:1027EC003C493C4B1B6823F0F8027B685B69DB00BF
:1027FC0013430B603AE07B681B69002B20D0364BEF
:10280C0001221A60FEF7F4FC386108E0FEF7F0FCD8
:10281C0002463B69D31A022B01D9032382E12D4BCB
:10282C001B6803F00203002BF0D02A49294B1B68CC
:10283C0023F0F8027B685B69DB0013430B6015E047
:10284C00254B00221A60FEF7D3FC386108E0FEF736
:10285C00CFFC02463B69D31A022B01D9032361E159
:10286C001C4B1B6803F00203002BF0D17B681B6828
:10287C0003F00803002B39D07B689B69002B19D01F
:10288C00164B01221A60FEF7B3FC386108E0FEF724
:10289C00AFFC02463B69D31A022B01D9032341E159
:1028AC000C4B5B6A03F00203002BF0D0012000F00C
:1028BC00A3FA1BE0094B00221A60FEF799FC386161
:1028CC000EE0FEF795FC02463B69D31A022B07D9A2
:1028DC00032327E1001002400000424280044242E0
:1028EC00924B5B6A03F00203002BEAD17B681B68F6
:1028FC0003F00403002B00F0A6800023FB758B4B28
:10290C00DB6903F08053002B0DD1884A874BDB69C0
:10291C0043F08053D361854BDB6903F08053FB603C
:10292C00FB680123FB75824B1B6803F48073002B3F
:10293C0018D17F4A7E4B1B6843F480731360FEF7FB
:10294C0057FC386108E0FEF753FC02463B69D31A8A
:10295C00642B01D90323E5E0754B1B6803F48073EA
:10296C00002BF0D07B68DB68012B06D16F4A6F4BD4
:10297C001B6A43F0010313622DE07B68DB68002BBC
:10298C000CD16A4A694B1B6A23F001031362674A34
:10299C00664B1B6A23F0040313621CE07B68DB6844
:1029AC00052B0CD1614A614B1B6A43F00403136283
:1029BC005E4A5E4B1B6A43F0010313620BE05B4AF9
:1029CC005A4B1B6A23F001031362584A574B1B6A7C
:1029DC0023F0040313627B68DB68002B15D0FEF731
:1029EC0007FC38610AE0FEF703FC02463B69D31A88
:1029FC0041F28832934201D9032393E04B4B1B6A7B
:102A0C0003F00203002BEED014E0FEF7F1FB38616B
:102A1C000AE0FEF7EDFB02463B69D31A41F288321D
:102A2C00934201D903237DE0404B1B6A03F0020360
:102A3C00002BEED1FB7D012B05D13C4A3B4BDB69D6
:102A4C0023F08053D3617B68DB69002B69D0374B53
:102A5C005B6803F00C03082B61D07B68DB69022BED
:102A6C0046D1344B00221A60FEF7C2FB386108E0F5
:102A7C00FEF7BEFB02463B69D31A022B01D9032396
:102A8C0050E02A4B1B6803F00073002BF0D17B68DD
:102A9C001B6AB3F5803F08D12449244B5B6823F4AF
:102AAC0000327B689B6813434B6020481F4B5B686C
:102ABC0023F474127B68196A7B685B6A0B431343BB
:102ACC0043601C4B01221A60FEF792FB386108E050
:102ADC00FEF78EFB02463B69D31A022B01D9032366
:102AEC0020E0124B1B6803F00073002BF0D018E0B1
:102AFC00104B00221A60FEF77BFB386108E0FEF7F2
:102B0C0077FB02463B69D31A022B01D9032309E058
:102B1C00064B1B6803F00073002BF0D101E001237E
:102B2C0000E0002318461837BD4680BD0010024057
:102B3C00007000406000424280B584B000AF786005
:102B4C0039600023FB60724B1B6803F007023B6883
:102B5C009A4210D26E496E4B1B6823F007023B68F9
:102B6C0013430B606A4B1B6803F007023B689A42E5
:102B7C0001D00123C8E07B681B6803F00203002B23
:102B8C0008D06449634B5B6823F0F0027B689B6858
:102B9C0013434B607B681B6803F00103002B6AD066
:102BAC007B685B68012B07D15A4B1B6803F400331D
:102BBC00002B15D10123A7E07B685B68022B07D1A2
:102BCC00544B1B6803F00073002B09D101239BE0CD
:102BDC00504B1B6803F00203002B01D1012393E03F
:102BEC004C494C4B5B6823F003027B685B681343D6
:102BFC004B60FEF7FDFAF8607B685B68012B12D125
:102C0C000AE0FEF7F5FA0246FB68D31A41F2883265
:102C1C00934201D9032377E03E4B5B6803F00C032E
:102C2C00042BEED127E07B685B68022B1DD10AE0F8
:102C3C00FEF7DEFA0246FB68D31A41F28832934261
:102C4C0001D9032360E0334B5B6803F00C03082BC2
:102C5C00EED110E0FEF7CCFA0246FB68D31A41F233
:102C6C008832934201D903234EE02A4B5B6803F070
:102C7C000C03002BEED1264B1B6803F007023B68BC
:102C8C009A4210D92249224B1B6823F007023B6859
:102C9C0013430B601E4B1B6803F007023B689A4200
:102CAC0001D0012330E07B681B6803F00403002B88
:102CBC0008D01849174B5B6823F4E0627B68DB682B
:102CCC0013434B607B681B6803F00803002B09D08F
:102CDC001049104B5B6823F460527B681B69DB0066
:102CEC0013434B6000F01CF801460A4B5B681B0950
:102CFC0003F00F03084AD35C21FA03F3074A13606D
:102D0C000020FEF733FA002318461037BD4680BD6D
:102D1C0000200240001002402C7A0008B000002075
:102D2C0090B48AB000AF2A4B3C1D0FCB84E80F0047
:102D3C00284B1B883B800023FB610023BB610023D5
:102D4C007B6200237B6100233B62234B5B68FB614E
:102D5C00FB6903F00C03042B02D0082B03D02DE0ED
:102D6C001E4B3B622DE0FB699B0C03F00F0307F13C
:102D7C002802134413F8243C7B61FB6903F4803371
:102D8C00002B13D0144B5B685B0C03F0010307F1B1
:102D9C002802134413F8283CBB617B690F4A02FBE1
:102DAC0003F2BB69B2FBF3F37B6204E07B690C4A70
:102DBC0002FB03F37B627B6A3B6202E0074B3B62E4
:102DCC0000BF3B6A18462837BD4690BC704700BF11
:102DDC0048790008587900080010024000127A0067
:102DEC0000093D0080B400AF024B1B681846BD467D
:102DFC0080BC7047B000002080B485B000AF786014
:102E0C000A4B1B680A4AA2FB03235B0A7A6802FB83
:102E1C0003F3FB6000BFFB685A1EFA60002BF9D16C
:102E2C0000BF1437BD4680BC704700BFB000002007
:102E3C00D34D621080B586B000AF786000233B6143
:102E4C000023FB607B681B6803F00103002B7DD023
:102E5C000023FB754F4BDB6903F08053002B0DD126
:102E6C004C4A4C4BDB6943F08053D361494BDB69D3
:102E7C0003F08053BB60BB680123FB75464B1B689A
:102E8C0003F48073002B18D1434A434B1B6843F463
:102E9C0080731360FEF7ACF9386108E0FEF7A8F90F
:102EAC0002463B69D31A642B01D903236DE03A4BDC
:102EBC001B6803F48073002BF0D0364B1B6A03F4B1
:102ECC004073FB60FB68002B2ED07B685B6803F4BF
:102EDC004072FB689A4227D02E4B1B6A23F4407336
:102EEC00FB602E4B01221A602C4B00221A60294ADF
:102EFC00FB681362FB6803F00103002B14D0FEF790
:102F0C0077F938610AE0FEF773F902463B69D31A88
:102F1C0041F28832934201D9032336E01D4B1B6AE0
:102F2C0003F00203002BEED01A491A4B1B6A23F450
:102F3C0040727B685B6813430B62FB7D012B05D1F0
:102F4C00144A144BDB6923F08053D3617B681B68F4
:102F5C0003F00203002B08D00E490E4B5B6823F4E0
:102F6C0040427B689B6813434B607B681B6803F093
:102F7C001003002B08D00749064B5B6823F4800232
:102F8C007B68DB6813434B60002318461837BD463B
:102F9C0080BD00BF0010024000700040400442425F
:102FAC0084B080B483B000AF786007F1140080E87F
:102FBC000E00002318460C37BD4680BC04B0704789
:102FCC0080B485B000AF78600023FB604FF43F43C2
:102FDC00FB607B68B3F840309AB2FB689BB213433A
:102FEC009AB27B68A3F84020002318461437BD46DC
:102FFC0080BC704780B485B000AF78600023FB6064
:10300C004FF43D43FB607B68B3F840309AB2FB68E9
:10301C009BB2DB439BB213409AB27B68A3F840206F
:10302C00002318461437BD4680BC704780B483B06B
:10303C0000AF78600B46FB70002318460C37BD467A
:10304C0080BC704784B080B582B000AF786007F167
:10305C00140080E80E007B680122A3F840207B68F6
:10306C000022A3F840207B680022A3F844207B6850
:10307C000022A3F850207868FFF7A2FF002318461F
:10308C000837BD46BDE8804004B0704780B483B0BB
:10309C0000AF78603960002318460C37BD4680BC01
:1030AC00704780B483B000AF7860002318460C37AB
:1030BC00BD4680BC7047000090B484B000AF78600F
:1030CC0039603B68DB78032B5FD801A252F823F000
:1030DC00ED3000086B310008193100083F31000851
:1030EC007A683B681B789B001A4479683B681B78AC
:1030FC009B000B441B889BB223F4EC4323F070031E
:10310C009BB243F400739BB213803FE07A683B6838
:10311C001B789B001A4479683B681B789B000B4416
:10312C001B889BB223F4EC4323F070039BB21380F7
:10313C002CE07A683B681B789B001A4479683B68E2
:10314C001B789B000B441B889BB223F4EC4323F0AD
:10315C0070039BB243F4C0639BB2138016E07A6891
:10316C003B681B789B001A4479683B681B789B0072
:10317C000B441B889BB223F4EC4323F070039BB2EB
:10318C0043F480639BB2138000E000BF7A683B6815
:10319C001B789B001A4479683B681B789B000B4496
:1031AC001B8899B240F60F730B4099B23B681B78A1
:1031BC009BB20B4399B2754B0B439BB213803B688C
:1031CC009B7A002B40F0E8803B685B78002B4CD05E
:1031DC007B68B3F850309BB21A463B681B78DB0017
:1031EC0013445A007B68134403F580631A463B680A
:1031FC009B885B089BB25B0013607A683B681B780A
:10320C009B0013441B889BB203F04003002B13D08C
:10321C007A683B681B789B001A4479683B681B787A
:10322C009B000B441B8899B240F60F730B4099B26C
:10323C00574B0B439BB213807A683B681B789B00FF
:10324C0013441B889BB223F4E04323F040039CB24D
:10325C0084F020039CB27A683B681B789B001A446C
:10326C004A4B23439BB21380D9E17B68B3F85030AF
:10327C009BB21A463B681B78DB00134404335A009C
:10328C007B68134403F580631A463B689B885B0894
:10329C009BB25B0013607B68B3F850309BB21A464C
:1032AC003B681B78DB00134406335A007B681344DD
:1032BC0003F58063BB603B681B693E2B18D93B68E8
:1032CC001B695B09FB813B681B6903F01F03002B27
:1032DC0002D1FB89013BFB81FB899B029BB26FEA0C
:1032EC0043436FEA53439BB21A46BB681A6012E021
:1032FC003B681B695B08FB813B681B6903F001039E
:10330C00002B02D0FB890133FB81FB899B029BB212
:10331C001A46BB681A607A683B681B789B0013449A
:10332C001B889BB203F48043002B13D07A683B6854
:10333C001B789B001A4479683B681B789B000B44F4
:10334C001B8899B240F60F730B4099B2114B0B438B
:10335C009BB213807A683B681B789B0013441B88D4
:10336C009BB223F4804323F070039CB284F480530B
:10337C009CB284F400539CB27A683B681B789B0027
:10338C001A44024B23439BB2138048E18080FFFF19
:10339C00C080FFFF80C0FFFF7A683B681B789B00F2
:1033AC001A4479683B681B789B000B441B8899B2C4
:1033BC0040F60F630B4099B29C4B0B439BB21380AE
:1033CC007B68B3F850309BB21A463B681B78DB0025
:1033DC0013445A007B68134403F580631A463B6818
:1033EC00DB885B089BB25B0013607B68B3F85030E2
:1033FC009BB21A463B681B78DB00134404335A001B
:10340C007B68134403F580631A463B681B895B0891
:10341C009BB25B0013603B685B78002B40F08380B1
:10342C007A683B681B789B0013441B889BB203F49F
:10343C008043002B13D07A683B681B789B001A449E
:10344C0079683B681B789B000B441B8899B240F64B
:10345C000F730B4099B2764B0B439BB213807A6877
:10346C003B681B789B0013441B889BB203F0400302
:10347C00002B13D07A683B681B789B001A44796840
:10348C003B681B789B000B441B8899B240F60F736A
:10349C000B4099B2674B0B439BB213807A683B6825
:1034AC001B789B001A4479683B681B789B000B4483
:1034BC001B8899B240F60F730B4099B25D4B0B43CE
:1034CC009BB213807A683B681B789B0013441B8863
:1034DC009BB223F4804323F070039CB284F480539A
:1034EC009CB284F400539CB27A683B681B789B00B6
:1034FC001A44514B23439BB213807A683B681B7868
:10350C009B0013441B889BB223F4E04323F040033D
:10351C009CB27A683B681B789B001A44464B234349
:10352C009BB213807BE07A683B681B789B0013444A
:10353C001B889BB203F48043002B13D07A683B6842
:10354C001B789B001A4479683B681B789B000B44E2
:10355C001B8899B240F60F730B4099B2344B0B4356
:10356C009BB213807A683B681B789B0013441B88C2
:10357C009BB203F04003002B13D07A683B681B7896
:10358C009B001A4479683B681B789B000B441B8892
:10359C0099B240F60F730B4099B2264B0B439BB27A
:1035AC0013807A683B681B789B001A4479683B68E7
:1035BC001B789B000B441B8899B240F60F730B4091
:1035CC0099B21B4B0B439BB213807A683B681B78F8
:1035DC009B0013441B889BB223F4E04323F040036D
:1035EC009CB27A683B681B789B001A44124B2343AD
:1035FC009BB213807A683B681B789B0013441B8832
:10360C009BB223F4804323F070039CB27A683B682E
:10361C001B789B001A44084B23439BB21380002356
:10362C0018461037BD4690BC704700BF8081FFFF25
:10363C0080C0FFFFC080FFFF8080FFFF90B482B08E
:10364C0000AF786039603B689B7A002B6DD13B688A
:10365C005B78002B34D07A683B681B789B00134452
:10366C001B889BB203F04003002B13D07A683B6895
:10367C001B789B001A4479683B681B789B000B44B1
:10368C001B8899B240F60F730B4099B2684B0B43F1
:10369C009BB213807A683B681B789B0013441B8891
:1036AC009BB223F4E04323F040039CB27A683B685E
:1036BC001B789B001A445F4B23439BB2138039E168
:1036CC007A683B681B789B0013441B889BB203F4FD
:1036DC008043002B13D07A683B681B789B001A44FC
:1036EC0079683B681B789B000B441B8899B240F6A9
:1036FC000F730B4099B2504B0B439BB213807A68FB
:10370C003B681B789B0013441B889BB223F48043BB
:10371C0023F070039CB27A683B681B789B001A44B8
:10372C00444B23439BB2138004E13B685B78002B32
:10373C0040F084807A683B681B789B0013441B889C
:10374C009BB203F48043002B13D07A683B681B7840
:10375C009B001A4479683B681B789B000B441B88C0
:10376C0099B240F60F730B4099B2334B0B439BB29B
:10377C0013807A683B681B789B0013441B889BB2B0
:10378C0003F04003002B13D07A683B681B789B0036
:10379C001A4479683B681B789B000B441B8899B2D0
:1037AC0040F60F730B4099B2214B0B439BB2138025
:1037BC007A683B681B789B001A4479683B681B78D5
:1037CC009B000B441B8899B240F60F730B4099B2C7
:1037DC00174B0B439BB213807A683B681B789B009A
:1037EC0013441B889BB223F4804323F070039CB2D8
:1037FC007A683B681B789B001A440E4B23439BB2A0
:10380C0013807A683B681B789B0013441B889BB21F
:10381C0023F4E04323F040039CB27A683B681B78A6
:10382C009B001A44034B23439BB2138082E000BFDE
:10383C00C080FFFF8080FFFF80C0FFFF7A683B687D
:10384C001B789B0013441B889BB203F48043002B12
:10385C0013D07A683B681B789B001A4479683B68E4
:10386C001B789B000B441B8899B240F60F730B40DE
:10387C0099B2334B0B439BB213807A683B681B782D
:10388C009B0013441B889BB203F04003002B13D006
:10389C007A683B681B789B001A4479683B681B78F4
:1038AC009B000B441B8899B240F60F730B4099B2E6
:1038BC00244B0B439BB213807A683B681B789B00AC
:1038CC001A4479683B681B789B000B441B8899B29F
:1038DC0040F60F730B4099B2194B0B439BB21380FC
:1038EC007A683B681B789B0013441B889BB223F4BB
:1038FC00E04323F040039CB27A683B681B789B0042
:10390C001A44114B23439BB213807A683B681B7893
:10391C009B0013441B889BB223F4804323F0700359
:10392C009CB27A683B681B789B001A44064B234375
:10393C009BB21380002318460837BD4690BC7047D5
:10394C0080C0FFFFC080FFFF8080FFFF90B58DB06F
:10395C0000AF786039600023FB853B689B69BB62D4
:10396C003B685B78012B40F049813B689A693B6866
:10397C001B699A4209D93B681B69BB623B689A690F
:10398C00BB6AD21A3B689A6105E03B689B69BB62D3
:10399C003B6800229A613B689B7A002B1BD13B68E9
:1039AC0059693B689A88BB6A9BB2786800F07DFBCA
:1039BC007B68B3F850309BB21A463B681B78DB002F
:1039CC00134402335A007B68134403F580631A4690
:1039DC00BB6A1360F6E07A683B681B789B00134463
:1039EC001B889BB203F04003002B59D03B685B78DB
:1039FC00002B3BD17B68B3F850309BB21A463B6826
:103A0C001B78DB00134406335A007B68134403F520
:103A1C008063BB61BB6A3E2B16D9BB6A5B09FB8416
:103A2C00BB6A03F01F03002B02D1FB8C013BFB8410
:103A3C00FB8C9B029BB26FEA43436FEA53439BB2EE
:103A4C001A46BB691A6027E0BB6A5B08FB84BB6A39
:103A5C0003F00103002B02D0FB8C0133FB84FB8CA5
:103A6C009B029BB21A46BB691A6015E03B685B78F7
:103A7C00012B11D17B68B3F850309BB21A463B68CE
:103A8C001B78DB00134402335A007B68134403F5A4
:103A9C0080631A46BB6A13603B681B89FB8558E040
:103AAC003B685B78002B3BD17B68B3F850309BB202
:103ABC001A463B681B78DB00134402335A007B68C0
:103ACC00134403F580637B61BB6A3E2B16D9BB6A3A
:103ADC005B09BB84BB6A03F01F03002B02D1BB8CB8
:103AEC00013BBB84BB8C9B029BB26FEA43436FEAE6
:103AFC0053439BB21A467B691A6027E0BB6A5B088A
:103B0C00BB84BB6A03F00103002B02D0BB8C0133D6
:103B1C00BB84BB8C9B029BB21A467B691A6015E076
:103B2C003B685B78012B11D17B68B3F850309BB2AA
:103B3C001A463B681B78DB00134402335A007B683F
:103B4C00134403F580631A46BB6A13603B68DB8839
:103B5C00FB853B685969BB6A9BB2FA8D786800F0AB
:103B6C00A4FA3B685B78002B14D17A683B681B780D
:103B7C009B001A4479683B681B789B000B441B889C
:103B8C0099B240F60F730B4099B2924B0B439BB218
:103B9C00138017E03B685B78012B13D17A683B6884
:103BAC001B789B001A4479683B681B789B000B447C
:103BBC001B8899B240F60F730B4099B2864B0B439E
:103BCC009BB213807A683B681B789B0013441B885C
:103BDC009BB223F4E04323F040039CB284F0100327
:103BEC009CB284F020039CB27A683B681B789B00E3
:103BFC001A447A4B23439BB2138022E13B689A69A7
:103C0C003B681B699A4209D93B681B69BB623B68DC
:103C1C009A69BB6AD21A3B689A6105E03B689B695A
:103C2C00BB623B6800229A613B689B7A002B3BD1BC
:103C3C007B68B3F850309BB21A463B681B78DB00AC
:103C4C00134406335A007B68134403F580633B61CD
:103C5C00BB6A3E2B16D9BB6A5B097B84BB6A03F03B
:103C6C001F03002B02D17B8C013B7B847B8C9B0242
:103C7C009BB26FEA43436FEA53439BB21A463B69CC
:103C8C001A60C3E0BB6A5B087B84BB6A03F0010368
:103C9C00002B02D07B8C01337B847B8C9B029BB2F0
:103CAC001A463B691A60B1E03B685B78002B3BD14C
:103CBC007B68B3F850309BB21A463B681B78DB002C
:103CCC00134402335A007B68134403F58063FB6092
:103CDC00BB6A3E2B16D9BB6A5B093B84BB6A03F0FB
:103CEC001F03002B02D13B8C013B3B843B8C9B0282
:103CFC009BB26FEA43436FEA53439BB21A46FB688D
:103D0C001A6027E0BB6A5B083B84BB6A03F00103C3
:103D1C00002B02D03B8C01333B843B8C9B029BB22F
:103D2C001A46FB681A6015E03B685B78012B11D1D1
:103D3C007B68B3F850309BB21A463B681B78DB00AB
:103D4C00134402335A007B68134403F580631A460C
:103D5C00BB6A13603B685B78002B41D17B68B3F87E
:103D6C0050309BB21A463B681B78DB001344063379
:103D7C005A007B68134403F58063BB60BB6A3E2B1F
:103D8C0016D9BB6A5B09FB83BB6A03F01F03002BCC
:103D9C0002D1FB8B013BFB83FB8B9B029BB26FEA3B
:103DAC0043436FEA53439BB21A46BB681A602DE03B
:103DBC00BB6A5B08FB83BB6A03F00103002B02D0D8
:103DCC00FB8B0133FB83FB8B9B029BB21A46BB68BC
:103DDC001A601BE0C080FFFF80C0FFFF8080FFFFE8
:103DEC003B685B78012B11D17B68B3F850309BB2E8
:103DFC001A463B681B78DB00134402335A007B687D
:103E0C00134403F580631A46BB6A13607A683B68F7
:103E1C001B789B0013441B889BB223F4804323F034
:103E2C0070039CB284F480539CB284F400539CB213
:103E3C007A683B681B789B001A44044B23439BB263
:103E4C001380002318463437BD4690BD8080FFFF99
:103E5C0090B482B000AF786039603B681B78002B5F
:103E6C0018D17A683B681B789B0013441B889BB263
:103E7C004BF6BF741C4084F4805484F010047A68B0
:103E8C003B681B789B001A44A1B2204B0B439BB29E
:103E9C00138034E03B685B78002B18D07A683B6861
:103EAC001B789B0013441B889BB223F4E04323F044
:103EBC0040039CB284F010039CB27A683B681B7878
:103ECC009B001A44114B23439BB2138017E07A6872
:103EDC003B681B789B0013441B889BB223F48043E4
:103EEC0023F070039CB284F480539CB27A683B68D4
:103EFC001B789B001A44054B23439BB21380002371
:103F0C0018460837BD4690BC704700BF8080FFFF45
:103F1C0090B482B000AF786039603B685B78002B5E
:103F2C003AD07A683B681B789B0013441B889BB281
:103F3C0003F04003002B13D07A683B681B789B007E
:103F4C001A4479683B681B789B000B441B8899B218
:103F5C0040F60F730B4099B22F4B0B439BB213805F
:103F6C007A683B681B789B0013441B889BB223F434
:103F7C00E04323F040039CB284F010039CB284F025
:103F8C0020039CB27A683B681B789B001A44234B35
:103F9C0023439BB2138039E07A683B681B789B0003
:103FAC0013441B889BB203F48043002B13D07A6814
:103FBC003B681B789B001A4479683B681B789B0014
:103FCC000B441B8899B240F60F730B4099B2144BFB
:103FDC000B439BB213807A683B681B789B0013449D
:103FEC001B889BB223F4804323F070039CB284F4AF
:103FFC0080539CB284F400539CB27A683B681B7863
:10400C009B001A44054B23439BB213800023184694
:10401C000837BD4690BC7047C080FFFF8080FFFF13
:10402C0080C0FFFF80B483B000AF78600B46FB709C
:10403C00FB78002B03D17B688022A3F84C20002353
:10404C0018460C37BD4680BC704780B483B000AFB7
:10405C007860002318460C37BD4680BC704780B48E
:10406C0083B000AF7860002318460C37BD4680BC87
:10407C00704780B485B000AF78600023FB607B682C
:10408C00B3F844309BB2FB60FB6818461437BD464E
:10409C0080BC704780B483B000AF78603960002377
:1040AC0018460C37BD4680BC704780B48BB000AF4F
:1040BC00F860B96011461A460B46FB801346BB806C
:1040CC00BB8801335B10FB6100237B620023BB6167
:1040DC0000237B6100233B62FB885B001A46FB6874
:1040EC00134403F580633B62FB697B621BE0BB6896
:1040FC001B78BB61BB680133BB60BB681B781B02C0
:10410C001A46BB6913437B613B6A9A1C3A627A6913
:10411C0092B21A803B6A02333B62BB680133BB60CC
:10412C007B6A013B7B627B6A002BE0D100BF2C37A2
:10413C00BD4680BC704780B489B000AFF860B960F0
:10414C0011461A460B46FB801346BB80BB880133D5
:10415C005B107B610023FB610023BB61FB885B0070
:10416C001A46FB68134403F58063BB617B69FB61F2
:10417C000EE0BB685A1CBA60BA69111DB9611268AD
:10418C0092B21A80BB680133BB60FB69013BFB61D7
:10419C00FB69002BEDD100BF2437BD4680BC7047B6
:1041AC0080B584B000AF78600B46FB700023FB81B8
:1041BC007B681B7C002B0ED14FF400730222012173
:1041CC00786802F0E5FB4FF40073022281217868D5
:1041DC0002F0DEFB0BE0402302220121786802F0A2
:1041EC00D7FB402302228121786802F0D1FB4FF4E7
:1041FC001B7002F0C7FD02467B68C3F818227B686F
:10420C00D3F81832002B02D10123FB8104E078682B
:10421C0000F058F90023FB81FB89DBB218461037FC
:10422C00BD4680BD80B582B000AF78600B46FB7098
:10423C000121786802F0EAFB8121786802F0E6FB44
:10424C00786800F089F97B68D3F81832002B09D014
:10425C007B68D3F81832184602F0A0FD7B68002268
:10426C00C3F81822002318460837BD4680BD80B518
:10427C0084B000AF786039607B68D3F81832FB608B
:10428C003B681B7803F06003002B4AD0202B00D036
:10429C00A0E03B685B78FE2B02D0FF2B23D039E0EB
:1042AC003B685B88002B18D13B68DB88012B14D151
:1042BC003B681B785BB2002B0FDA7B68D3F81C329F
:1042CC009B69984703461A46FB681A60FB680122F3
:1042DC001946786801F0A2FF22E03968786801F08D
:1042EC0032FF022377E03B685B88002B0CD13B68E4
:1042FC00DB88002B08D13B681B785BB2002B03DBFF
:10430C00786800F00FF90BE03968786801F01BFF52
:10431C00022360E03968786801F015FF02235AE047
:10432C0058E03B685B780A2B04D00B2B0AD0012B8E
:10433C000FD04EE0FB68043301221946786801F077
:10434C006DFF46E03B685B88DBB21A46FB685A603F
:10435C003FE03B689B88DBB21946786802F08CFB27
:10436C003B689B88DBB21946786802F04FFB3B68D0
:10437C009B885BB2002B12DA7B681B7C002B07D16D
:10438C004FF4007302228121786802F001FB18E0DF
:10439C00402302228121786802F0FAFA11E07B684E
:1043AC001B7C002B07D14FF400730222012178688B
:1043BC0002F0EEFA05E0402302220121786802F0B7
:1043CC00E7FA3B689B88DBB21946786800F038FA4C
:1043DC0000BF00BF002318461037BD4680BD80B516
:1043EC0082B000AF78600B46FB70FB78194678689A
:1043FC0000F0C2F8002318460837BD4680BD80B5D2
:10440C0082B000AF78600B46FB70FB781946786879
:10441C0000F0E3F8002318460837BD4680BD0000C5
:10442C0080B483B000AF78607B6820221A80034B85
:10443C0018460C37BD4680BC704700BF40000020BA
:10444C0080B483B000AF78607B6820221A80034B65
:10445C0018460C37BD4680BC704700BF600000207A
:10446C0080B483B000AF78607B6820221A80034B45
:10447C0018460C37BD4680BC704700BF800000203A
:10448C0080B483B000AF78607B680A221A80034B3B
:10449C0018460C37BD4680BC704700BFA0000020FA
:1044AC0080B483B000AF786039603B68002B03D0D8
:1044BC007B683A68C3F81C22002318460C37BD46AB
:1044CC0080BC704780B584B000AF78607B68D3F84F
:1044DC001832FB60FB6800221A72FB6800225A72C9
:1044EC00FB68002283F85D22FB68002283F85C22C3
:1044FC007B68D3F81C321B68002098470121786830
:10450C0002F0BAFA8121786802F0B6FAFB6803F57A
:10451C0003721F230121786802F0E6FB00BF1037FD
:10452C00BD4680BD80B584B000AF78607B68D3F8A1
:10453C001832FB60FB6800221A72FB6801225A7267
:10454C00FB6803F503721F230121786802F0CCFB92
:10455C0000BF1037BD4680BD80B485B000AF786019
:10456C007B68D3F81832FB60FB6800221A7200BF1C
:10457C001437BD4680BC704780B584B000AF7860FE
:10458C000B46FB707B68D3F81832FB60FB681B7A18
:10459C00022B04D0022B19DB042B17DC11E0FB6877
:1045AC0093F81912FB6803F21B231A46786800F083
:1045BC006DF90346002B0BDA0121786800F0E6F860
:1045CC0006E00021786800F0E1F802E000BF00E0AE
:1045DC0000BF00BF1037BD4680BD80B584B000AFB2
:1045EC0078600B46FB707B68D3F81832FB60FB6875
:1045FC001B7A002B02D0012B04D015E0786800F058
:10460C0017F811E0FB6893F81912FB6803F21B23EF
:10461C001A46786800F03AF90346002B03DA0121B8
:10462C00786800F0B3F800BF00BF1037BD4680BDFE
:10463C0080B584B000AF78607B68D3F81832FB602B
:10464C00FB68D3F81022FB68C3F83022FB68D3F860
:10465C001422FB68C3F834220121786802F07EFB37
:10466C0003461F2B14D1FB68D3F80C32304A93420B
:10467C000ED1FB6893F81932012B09D8FB6893F81B
:10468C001A32002B04D0FB6893F81A32102B0ED977
:10469C00FB6893F8191220230522786800F04AFC75
:1046AC00FB6802225A72786800F09CF83BE0FB68C9
:1046BC0093F81912FB6803F21B231A46786800F072
:1046CC00E5F80346002B0CDAFB681B7A052B04D1AA
:1046DC000121786800F05AF825E0786800F082F83B
:1046EC0021E0FB681B7A022B1DD0FB681B7A012B87
:1046FC0019D0FB681B7A032B15D0FB685B89002B48
:10470C0009D0FB6803F10C01FB685B891A467868D9
:10471C0000F010F807E0FB685B89002B03D1002147
:10472C00786800F033F800BF1037BD4680BD00BF7D
:10473C005553424380B586B000AFF860B96013465C
:10474C00FB80FB68D3F818327B61FA887B69D3F85D
:10475C001432934228BF1346FB807B69D3F8342272
:10476C00FB88D21A7B69C3F834227B69002283F858
:10477C0038227B6904221A72FB88BA688121F86896
:10478C0002F078FA00BF1837BD4680BD80B584B002
:10479C0000AF78600B46FB707B68D3F81832FB6077
:1047AC00FB680F4AC3F82C22FB68FA7883F838228E
:1047BC00FB6800221A72FB6803F50B720D23812132
:1047CC00786802F057FAFB6803F503721F23012186
:1047DC00786802F089FA00BF1037BD4680BD00BF73
:1047EC005553425380B584B000AF78607B68D3F8E2
:1047FC001832FB60FB6893F81832002B0CD1FB6865
:10480C00D3F81432002B07D0FB685B7A002B03D152
:10481C000121786802F066F98121786802F062F96A
:10482C00FB685B7A022B07D1FB6803F503721F232D
:10483C000121786802F058FA00BF1037BD4680BDE0
:10484C0080B584B000AF78600B46FB707B68D3F802
:10485C001832FB60FB685B7A022B07D181217868E8
:10486C0002F040F9FB6800225A720BE097F9033012
:10487C00002B07DAFB685B7A012B03D001217868E7
:10488C00FFF784FF00BF1037BD4680BD80B584B0F4
:10489C0000AFF8600B467A60FB727B681B785A2B72
:1048AC0000F21A8101A252F823F000BF254A000839
:1048BC00E54A0008E54A0008354A0008E54A0008C0
:1048CC00E54A0008E54A0008E54A0008E54A000800
:1048DC00E54A0008E54A0008E54A0008E54A0008F0
:1048EC00E54A0008E54A0008E54A0008E54A0008E0
:1048FC00E54A0008454A0008E54A0008E54A000870
:10490C00E54A0008E54A0008E54A0008E54A0008BF
:10491C00E54A0008754A0008554A0008E54A0008AF
:10492C00E54A0008654A0008E54A0008E54A00081F
:10493C00E54A0008E54A0008954A0008E54A0008DF
:10494C00A54A0008E54A0008E54A0008B54A0008EF
:10495C00E54A0008C54A0008E54A0008E54A00088F
:10496C00E54A0008E54A0008D54A0008E54A00086F
:10497C00E54A0008E54A0008E54A0008E54A00084F
:10498C00E54A0008E54A0008E54A0008E54A00083F
:10499C00E54A0008E54A0008E54A0008E54A00082F
:1049AC00E54A0008E54A0008E54A0008E54A00081F
:1049BC00E54A0008E54A0008E54A0008E54A00080F
:1049CC00E54A0008E54A0008E54A0008E54A0008FF
:1049DC00E54A0008E54A0008E54A0008E54A0008EF
:1049EC00E54A0008E54A0008E54A0008E54A0008DF
:1049FC00E54A0008E54A0008E54A0008E54A0008CF
:104A0C00E54A0008E54A0008E54A0008E54A0008BE
:104A1C00E54A0008854A0008FB7A7A681946F86866
:104A2C0000F066F803465FE0FB7A7A681946F8688E
:104A3C0000F016FA034657E0FB7A7A681946F868D4
:104A4C0000F0A4F803464FE0FB7A7A681946F86840
:104A5C0000F0A9FA034647E0FB7A7A681946F86831
:104A6C0000F0A1FA03463FE0FB7A7A681946F86831
:104A7C0000F0A6F9034637E0FB7A7A681946F86825
:104A8C0000F0C6F903462FE0FB7A7A681946F868FD
:104A9C0000F031F9034627E0FB7A7A681946F8688A
:104AAC0000F0C2F803461FE0FB7A7A681946F868F2
:104ABC0000F08DFA034617E0FB7A7A681946F8681D
:104ACC0000F026FB03460FE0FB7A7A681946F8687B
:104ADC0000F0E0FB034607E0F97A20230522F86892
:104AEC0000F028FA4FF0FF3318461037BD4680BD52
:104AFC0080B586B000AFF8600B467A60FB72FB683D
:104B0C00D3F818327B61204B1B78002B0ED01E4B38
:104B1C0000221A70F97A29230622F86800F00AFAA2
:104B2C007B6905221A724FF0FF3329E07B69D3F8B9
:104B3C001432002B0AD07B6993F81912202305221A
:104B4C00F86800F0F7F94FF0FF3319E0FB68D3F881
:104B5C001C329B68FA7A104698470346002B0BD000
:104B6C00F97A3A230222F86800F0E4F97B6905220D
:104B7C001A724FF0FF3303E07B6900225A81002345
:104B8C0018461837BD4680BDAA00002080B489B0F5
:104B9C0000AFF8600B467A60FB72FB68D3F81832F2
:104BAC007B617B6801331B7803F00103002B04D07D
:104BBC001C4BFB6107237B831BE0FB68D3F81C3287
:104BCC00D969FA7A1346DB0013449B000B44FB6152
:104BDC00FB6904331B789BB205337B837B680433FE
:104BEC001B789BB27A8B9A4203D37B6804331B7875
:104BFC007B837B697A8B5A810BE07B8B013B7B83BC
:104C0C007B8B7A8BF9690A4411787A6913440A46CA
:104C1C001A737B8B002BF0D1002318462437BD462A
:104C2C0080BC7047147A000880B586B000AFF8607D
:104C3C000B467A60FB72FB68D3F818327B61FB6819
:104C4C00D3F81C325B687A6902F518717A6902F242
:104C5C005E22F87A98470346002B08D0F97A3A235B
:104C6C000222F86800F066F94FF0FF333FE07B69F1
:104C7C00D3F86032013B1B0EDAB27B691A737B6985
:104C8C00D3F86032013B1B0CDAB27B695A737B6937
:104C9C00D3F86032013B1B0ADAB27B699A737B69E9
:104CAC00D3F86032DBB2013BDAB27B69DA737B6931
:104CBC00B3F85E321B16DAB27B691A747B69B3F8EF
:104CCC005E321B14DAB27B695A747B69B3F85E32BC
:104CDC001B0A9BB2DAB27B699A747B69B3F85E32B9
:104CEC00DAB27B69DA747B6908225A810023184690
:104CFC001837BD4680BD80B588B000AFF8600B4654
:104D0C007A60FB72FB68D3F81832BB610023FB831B
:104D1C0007E0FB8BBA69134400221A73FB8B013337
:104D2C00FB83FB8B0B2BF4D9FB68D3F81C325B6831
:104D3C0007F1160207F11001F87A98470346002B89
:104D4C0008D0F97A3A230222F86800F0F3F84FF011
:104D5C00FF3330E0BB690822DA733B69013B1B0E61
:104D6C00DAB2BB691A743B69013B1B0CDAB2BB6942
:104D7C005A743B69013B1B0ADAB2BB699A743B69F2
:104D8C00DBB2013BDAB2BB69DA74BB6902221A7579
:104D9C00FB8A1B14DAB2BB695A75FB8A1B0A9BB2DD
:104DAC00DAB2BB699A75FB8ADAB2BB69DA75BB6990
:104DBC000C225A81002318462037BD4680BD0000C6
:104DCC0080B487B000AFF8600B467A60FB72FB686A
:104DDC00D3F818323B610823FB823B69FA8A5A816B
:104DEC000AE0FB8A013BFB82FB8AFA8A0749895C51
:104DFC003A6913440A461A73FB8A002BF1D100233B
:104E0C0018461C37BD4680BC704700BF1C7A000892
:104E1C0080B487B000AFF8600B467A60FB72082351
:104E2C00FB82FB68D3F818323B613B69FA8A5A81E2
:104E3C000AE0FB8A013BFB82FB8AFA8A0749895C00
:104E4C003A6913440A461A73FB8A002BF1D10023EA
:104E5C0018461C37BD4680BC704700BF247A00083A
:104E6C0080B487B000AFF8600B467A60FB72FB68C9
:104E7C00D3F818323B610023FB7507E0FB7D3A69E0
:104E8C00134400221A73FB7D0133FB75FB7D112B40
:104E9C00F4D93B6970221A733B690C22DA743B69B2
:104EAC0093F85C223B6993F85D329A422ED03B69B1
:104EBC0093F85C323A694733DB0013441A793B6947
:104ECC009A733B6993F85C323A694733DB001344BD
:104EDC001A7A3B691A763B6993F85C323A69473324
:104EEC00DB0013445A7A3B695A763B6993F85C327F
:104EFC000133DAB23B6983F85C223B6993F85C328C
:104F0C00042B03D13B69002283F85C223B691222FB
:104F1C005A817B6804331B78122B05D87B680433C9
:104F2C001B789AB23B695A81002318461C37BD4640
:104F3C0080BC704780B485B000AF786008461146DD
:104F4C001A460346FB700B46BB7013463B807B68CE
:104F5C00D3F81832FB60FB6893F85D32FA6847337C
:104F6C00DB001344BA781A71FB6893F85D323A8807
:104F7C00F9684733DB000B449A60FB6893F85D32A9
:104F8C000133DAB2FB6883F85D22FB6893F85D327B
:104F9C00042B03D1FB68002283F85D2200BF143779
:104FAC00BD4680BC704780B487B000AFF8600B463C
:104FBC007A60FB72FB68D3F818327B617B69002244
:104FCC005A81002318461C37BD4680BC704780B5FB
:104FDC0086B000AFF8600B467A60FB72FB68D3F8C2
:104FEC0018327B617B691B7A002B40F083807B69D4
:104FFC0093F818325BB2002B0ADB7B6993F8191219
:10500C0020230522F868FFF795FF4FF0FF337BE074
:10501C00FB68D3F81C329B68FA7A10469847034613
:10502C00002B08D0F97A3A230222F868FFF782FFA6
:10503C004FF0FF3368E07B6802331B781A067B68FD
:10504C0003331B781B041A437B6804331B781B0245
:10505C0013437A680532127813431A467B69C3F8F6
:10506C0064227B6807331B781B027A68083212783B
:10507C0013431A467B69C3F868227B69D3F8642210
:10508C007B69D3F868329BB2F97AF86800F036F98C
:10509C000346002B02DA4FF0FF3335E07B69022226
:1050AC001A727B69D3F864327A69B2F85E2202FB19
:1050BC0003F27B69C3F864227B69D3F868327A699E
:1050CC00B2F85E2202FB03F27B69C3F868227B69AB
:1050DC00D3F814227B69D3F868329A420AD07B69E0
:1050EC0093F8191220230522F868FFF723FF4FF0DD
:1050FC00FF3309E07B694FF400725A81FB7A194641
:10510C00F86800F01FF9034618461837BD4680BDF5
:10511C0080B586B000AFF8600B467A60FB72FB6816
:10512C00D3F818327B617B691B7A002B40F0A88086
:10513C007B6993F818325BB2002B0ADA7B6993F81F
:10514C00191220230522F868FFF7F4FE4FF0FF3305
:10515C009CE0FB68D3F81C329B68FA7A104698479F
:10516C000346002B08D0F97A3A230222F868FFF79D
:10517C00E1FE4FF0FF3389E0FB68D3F81C32DB68AB
:10518C00FA7A104698470346002B08D0F97A272361
:10519C000222F868FFF7CEFE4FF0FF3376E07B6813
:1051AC0002331B781A067B6803331B781B041A43E3
:1051BC007B6804331B781B0213437A680532127820
:1051CC0013431A467B69C3F864227B6807331B7848
:1051DC001B027A680832127813431A467B69C3F8AB
:1051EC0068227B69D3F864227B69D3F868329BB25E
:1051FC00F97AF86800F082F80346002B02DA4FF0D7
:10520C00FF3343E07B69D3F864327A69B2F85E22EB
:10521C0002FB03F27B69C3F864227B69D3F8683222
:10522C007A69B2F85E2202FB03F27B69C3F868224A
:10523C007B69D3F814227B69D3F868329A420AD07E
:10524C007B6993F8191220230522F868FFF772FE88
:10525C004FF0FF331AE07B6901221A727B6903F16C
:10526C000C027B69D3F86832B3F5007F28BF4FF48A
:10527C0000739BB20121F86801F036FD002305E0B4
:10528C00FB7A1946F86800F0C2F80346184618373E
:10529C00BD4680BD80B586B000AFF8600B467A6025
:1052AC00FB72FB68D3F818327B617B6801331B7887
:1052BC0003F00203002B08D0F97A24230522F868A6
:1052CC00FFF738FE4FF0FF3314E07B69D3F864220C
:1052DC007B69D3F868329BB2F97AF86800F00EF863
:1052EC000346002B02DA4FF0FF3303E07B69002208
:1052FC005A81002318461837BD4680BD80B586B04C
:10530C0000AFF8607A601A460B46FB7213463B817D
:10531C00FB68D3F818327B613A897B681A447B6945
:10532C00D3F860329A4208D9F97A21230522F86819
:10533C00FFF700FE4FF0FF3300E00023184618374C
:10534C00BD4680BD90B585B000AF78600B46FB7054
:10535C007B68D3F81832FB60FB68D3F86832B3F57E
:10536C00007F28BF4FF40073BB607B68D3F81C32FE
:10537C001C69FB6803F10C01FB68D3F86432FA6812
:10538C00B2F85E22B3FBF2F2FB68B3F85E32184659
:10539C00BB68B3FBF0F3F878A0470346002B08DAA0
:1053AC00F978112304227868FFF7C4FD4FF0FF331E
:1053BC0029E0FB6803F10C02BB689BB28121786881
:1053CC0001F058FCFB68D3F86422BB681A44FB68F4
:1053DC00C3F86422FB68D3F86822BB68D21AFB6856
:1053EC00C3F86822FB68D3F83422BB68D21AFB6876
:1053FC00C3F83422FB68D3F86832002B02D1FB6867
:10540C0003221A72002318461437BD4690BD90B57E
:10541C0085B000AF78600B46FB707B68D3F8183210
:10542C00FB60FB68D3F86832B3F5007F28BF4FF4FC
:10543C000073BB607B68D3F81C325C69FB6803F1BA
:10544C000C01FB68D3F86432FA68B2F85E22B3FB45
:10545C00F2F2FB68B3F85E321846BB68B3FBF0F3AC
:10546C00F878A0470346002B08DAF97803230422C6
:10547C007868FFF75FFD4FF0FF3332E0FB68D3F83D
:10548C006422BB681A44FB68C3F86422FB68D3F837
:10549C006822BB68D21AFB68C3F86822FB68D3F891
:1054AC003422BB68D21AFB68C3F83422FB68D3F8E9
:1054BC006832002B04D100217868FFF767F90FE000
:1054CC00FB6803F10C02FB68D3F86832B3F5007F7C
:1054DC0028BF4FF400739BB20121786801F004FCE3
:1054EC00002318461437BD4690BD80B584B000AF7C
:1054FC00F860B9601346FB71FB68002B01D10223E5
:10550C001AE0FB68D3F81432002B03D0FB6800229E
:10551C00C3F81422BB68002B03D0FB68BA68C3F82D
:10552C001022FB68012283F8FC21FB68FA791A70BF
:10553C00F86801F0A3F9002318461037BD4680BD6A
:10554C0080B485B000AF786039600023FB733B6892
:10555C00002B06D07B683A68C3F814220023FB7337
:10556C0001E00223FB73FB7B18461437BD4680BC5D
:10557C00704780B582B000AF7860786801F0D6F9DA
:10558C00002318460837BD4680BD80B483B000AFF9
:10559C007860002318460C37BD4680BC704780B538
:1055AC0084B000AF78600B46FB700223FB737B6802
:1055BC00D3F81432002B0CD07B68D3F814321B6850
:1055CC00FA781146786898470346002B01D10023DE
:1055DC00FB73FB7B18461037BD4680BD80B582B08F
:1055EC0000AF78600B46FB707B68D3F814325B68B5
:1055FC00FA78114678689847002318460837BD4654
:10560C0080BD80B582B000AF786039607B6803F5EF
:10561C0002733968184600F05AFD7B680122C3F802
:10562C00F4217B68B3F80E321A467B68C3F8F82174
:10563C007B6893F8083203F01F03012B0BD0022B6D
:10564C0011D0002B17D17B6803F5027319467868CB
:10565C0000F088F91AE07B6803F502731946786844
:10566C0000F0D0F912E07B6803F5027319467868F4
:10567C0000F0FBF90AE07B6893F8083223F07F0313
:10568C00DBB21946786801F02DFA00BF00231846EA
:10569C000837BD4680BD80B586B000AFF8600B46BC
:1056AC007A60FB72FB7A002B38D1FB6803F58273AE
:1056BC007B61FB68D3F8F431032B42D17B699A6888
:1056CC007B69DB689A4214D97B699A687B69DB68D1
:1056DC00D21A7B699A607B69DA687B699B68934212
:1056EC0028BF13469BB21A467968F86800F0C4FDCF
:1056FC0027E0FB68D3F814321B69002B0AD0FB6837
:10570C0093F8FC31032B05D1FB68D3F814321B69D9
:10571C00F8689847F86800F0C1FD12E0FB68D3F810
:10572C0014329B69002B0CD0FB6893F8FC31032BD3
:10573C0007D1FB68D3F814329B69FA7A1146F868E2
:10574C009847002318461837BD4680BD80B586B0F3
:10575C0000AFF8600B467A60FB72FB7A002B6CD1C1
:10576C00FB6814337B61FB68D3F8F431022B57D1FF
:10577C007B699A687B69DB689A4215D97B699A6860
:10578C007B69DB68D21A7B699A607B699B689BB2E8
:10579C001A467968F86800F05DFD002300220021AC
:1057AC00F86801F0A1FA3BE07B695B687A69D26822
:1057BC00B3FBF2F102FB01F29B1A002B1CD17B69AB
:1057CC005A687B69DB689A4216D37B695A68FB6816
:1057DC00D3F8F8319A420FD200220021F86800F079
:1057EC0039FDFB680022C3F8F821002300220021B8
:1057FC00F86801F079FA13E0FB68D3F81432DB682F
:10580C00002B0AD0FB6893F8FC31032B05D1FB6805
:10581C00D3F81432DB68F8689847F86800F051FD4B
:10582C00FB6893F80032012B1AD1F868FFF7ADFE34
:10583C00FB68002283F8002212E0FB68D3F81432D4
:10584C005B69002B0CD0FB6893F8FC31032B07D160
:10585C00FB68D3F814325B69FA7A1146F8689847FA
:10586C00002318461837BD4680BD80B582B000AF06
:10587C007860402300220021786801F089F87B6869
:10588C004022C3F81021402300228021786801F0C7
:10589C007FF87B6840221A627B68012283F8FC2126
:1058AC007B68D3F81832002B09D07B68D3F81432FC
:1058BC005B687A685268D2B21146786898470023C0
:1058CC0018460837BD4680BD80B483B000AF786001
:1058DC000B46FB707B68FA781A74002318460C3759
:1058EC00BD4680BC704780B483B000AF78607B68E5
:1058FC0093F8FC217B6883F8FD217B68042283F8F4
:10590C00FC21002318460C37BD4680BC704780B480
:10591C0083B000AF78607B6893F8FD217B6883F8D7
:10592C00FC21002318460C37BD4680BC704780B55F
:10593C0082B000AF78607B6893F8FC31032B0BD1FD
:10594C007B68D3F81432DB69002B05D07B68D3F865
:10595C001432DB6978689847002318460837BD462F
:10596C0080BD000080B584B000AF78603960002342
:10597C00FB733B685B78092B39D801A252F823F0F2
:10598C00DD590008F1590008FB590008E7590008D7
:10599C00FB590008BF590008B5590008FB5900080D
:1059AC00D3590008C95900083968786800F036F9ED
:1059BC0022E03968786800F025FA1DE039687868CB
:1059CC0000F05EFA18E03968786800F0E1FA13E04C
:1059DC003968786800F00EFB0EE03968786800F0E2
:1059EC0033FB09E03968786800F049FB04E039685A
:1059FC00786800F0A8FB00BFFB7B18461037BD464B
:105A0C0080BD00BF80B584B000AF786039600023E2
:105A1C00FB737B6893F8FC31032B1BD13B689B8891
:105A2C00DBB2012B11D87B68D3F814329B68396830
:105A3C00786898473B68DB88002B10D1FB7B002BE8
:105A4C000DD1786800F02AFC09E03968786800F01C
:105A5C007AFB04E03968786800F075FB00E000BF61
:105A6C00002318461037BD4680BD80B584B000AF0A
:105A7C00786039600023FB733B689B88BB733B6881
:105A8C001B7803F06003202B08D17B68D3F8143209
:105A9C009B683968786898470023BAE03B685B7864
:105AAC00012B39D0032B02D0002B6BD0B0E07B68DC
:105ABC0093F8FC31022B02D0032B0CD025E0BB7BDE
:105ACC00002B27D0BB7B802B24D0BB7B194678685E
:105ADC0001F008F81EE03B685B88002B0AD1BB7B09
:105AEC00002B07D0BB7B802B04D0BB7B194678687E
:105AFC0000F0F8FF7B68D3F814329B68396878683B
:105B0C009847786800F0CAFB05E03968786800F0BF
:105B1C001AFB00E000BF7BE07B6893F8FC31022BA2
:105B2C0002D0032B0CD024E0BB7B002B26D0BB7BFC
:105B3C00802B23D0BB7B1946786800F0D3FF1DE087
:105B4C003B685B88002B1BD1BB7B03F07F03002BD6
:105B5C000BD0BB7B1946786800F0FAFF7B68D3F852
:105B6C0014329B68396878689847786800F096FB1F
:105B7C0006E03968786800F0E6FA02E000BF47E01A
:105B8C0000BF45E07B6893F8FC31022B02D0032B5D
:105B9C000BD036E0BB7B03F07F03002B36D0BB7BF6
:105BAC001946786800F09EFF30E097F90E30002B14
:105BBC0008DABB7B03F07F0301331B017A681344C3
:105BCC00043307E0BB7B03F07F0310331B017A68BF
:105BDC0013440433BB60BB7B1946786800F0EEFFBE
:105BEC000346002B03D0BB6801221A6002E0BB689D
:105BFC0000221A60BB6802221946786800F00EFB7E
:105C0C0005E03968786800F09EFA00E000BF00BF3C
:105C1C00FB7B18461037BD4680BD000080B584B0B4
:105C2C0000AF786039603B685B881B0A9BB2013B14
:105C3C00062B00F2C98001A252F823F0655C000823
:105C4C007D5C0008BD5C0008D55D0008D55D0008D2
:105C5C00815D0008A75D00087B68D3F810321B68D3
:105C6C007A68127C07F10A0110469847F860B0E098
:105C7C007B681B7C002B0DD17B68D3F814329B6A9C
:105C8C0007F10A0210469847F860FB6801330222BC
:105C9C001A709EE07B68D3F81432DB6A07F10A02B3
:105CAC0010469847F860FB68013302221A7090E0A6
:105CBC003B685B88DBB2052B56D801A252F823F067
:105CCC00E55C0008FD5C0008155D00082D5D000812
:105CDC00455D00085D5D00087B68D3F810325B6899
:105CEC007A68127C07F10A0110469847F86040E088
:105CFC007B68D3F810329B687A68127C07F10A0132
:105D0C0010469847F86034E07B68D3F81032DB68B3
:105D1C007A68127C07F10A0110469847F86028E06F
:105D2C007B68D3F810321B697A68127C07F10A0180
:105D3C0010469847F8601CE07B68D3F810325B691A
:105D4C007A68127C07F10A0110469847F86010E057
:105D5C007B68D3F810329B697A68127C07F10A01D0
:105D6C0010469847F86004E03968786800F0EBF961
:105D7C0044E02EE07B681B7C002B09D17B68D3F8B8
:105D8C0014325B6B07F10A0210469847F86020E06A
:105D9C003968786800F0D7F930E07B681B7C002B01
:105DAC000DD17B68D3F814321B6B07F10A02104635
:105DBC009847F860FB68013307221A7009E03968CC
:105DCC00786800F0C0F919E03968786800F0BBF920
:105DDC0014E07B89002B11D03B68DB88002B0DD0A5
:105DEC003B68DA887B89934228BF13469BB27B8140
:105DFC007B891A46F968786800F010FA1037BD46AE
:105E0C0080BD00BF80B584B000AF786039603B685E
:105E1C009B88002B2CD13B68DB88002B28D13B685E
:105E2C005B88DBB203F07F03FB737B6893F8FC3178
:105E3C00032B04D13968786800F085F91CE07B6885
:105E4C00FA7B83F8FE21FB7B1946786800F0DCFEB8
:105E5C00786800F023FAFB7B002B04D07B680222CD
:105E6C0083F8FC2108E07B68012283F8FC2103E025
:105E7C003968786800F067F900BF1037BD4680BDFF
:105E8C0080B582B000AF786039603B685B88DAB26D
:105E9C003E4B1A703D4B1B78012B04D9396878683E
:105EAC0000F051F96FE07B6893F8FC31022B02D0C3
:105EBC00032B23D062E0354B1B78002B1AD0334BCD
:105ECC001B781A467B685A607B68032283F8FC2196
:105EDC002E4B1B7819467868FFF761FB0346022BA3
:105EEC0004D13968786800F02EF94CE0786800F03D
:105EFC00D5F948E0786800F0D1F944E0234B1B78E1
:105F0C00002B12D17B68022283F8FC211F4B1B78DB
:105F1C001A467B685A601D4B1B7819467868FFF748
:105F2C005DFB786800F0BAF92DE0184B1B781A4627
:105F3C007B685B689A421DD07B685B68DBB2194654
:105F4C007868FFF74BFB114B1B781A467B685A603D
:105F5C000E4B1B7819467868FFF721FB0346022B82
:105F6C0004D13968786800F0EEF80CE0786800F03D
:105F7C0095F908E0786800F091F904E039687868E0
:105F8C0000F0E1F800BF0837BD4680BD24010020B9
:105F9C0080B582B000AF786039603B68DB88012B3C
:105FAC0004D03968786800F0CEF81FE07B6893F86D
:105FBC00FC31022B02D0032B0BD012E07B680022A9
:105FCC009A607B68083301221946786800F026F93C
:105FDC000CE07B68043301221946786800F01EF946
:105FEC0004E03968786800F0AEF800BF00BF0837ED
:105FFC00BD4680BD80B582B000AF786039607B68EB
:10600C0093F8FC31023B012B15D87B680122DA6036
:10601C007B68D3F80432002B05D07B68DB6843F037
:10602C0002027B68DA607B680C33022219467868BE
:10603C0000F0F4F804E03968786800F084F800BFE8
:10604C0000BF0837BD4680BD80B582B000AF786018
:10605C0039603B685B88012B0DD17B680122C3F84A
:10606C0004227B68D3F814329B68396878689847A7
:10607C00786800F013F900BF0837BD4680BD80B5C5
:10608C0082B000AF786039607B6893F8FC31023BDA
:10609C00012B12D83B685B88012B13D17B68002243
:1060AC00C3F804227B68D3F814329B68396878688B
:1060BC009847786800F0F2F804E03968786800F0E6
:1060CC0042F800E000BF00BF0837BD4680BD80B479
:1060DC0083B000AF786039603B681A787B681A70BF
:1060EC003B685A787B685A703B6802331B789AB2CB
:1060FC003B6803331B789BB21B029BB213449AB2CE
:10610C007B685A803B6804331B789AB23B68053332
:10611C001B789BB21B029BB213449AB27B689A8089
:10612C003B6806331B789AB23B6807331B789BB2EB
:10613C001B029BB213449AB27B68DA8000BF0C3707
:10614C00BD4680BC704780B582B000AF78603960C6
:10615C008021786800F0C6FC0021786800F0C2FC51
:10616C0000BF0837BD4680BD80B586B000AFF86073
:10617C00B9607A600023FB75FB68002B33D0F8689C
:10618C0000F035F8034601339BB25B009AB27B6892
:10619C001A80FB7D5A1CFA751A46BB6813447A6840
:1061AC001288D2B21A70FB7D5A1CFA751A46BB685B
:1061BC00134403221A7012E0FB7D5A1CFA751A461E
:1061CC00BB681A44FB68591CF9601B781370FB7D83
:1061DC005A1CFA751A46BB68134400221A70FB68E5
:1061EC001B78002BE8D100BF1837BD4680BD80B4AA
:1061FC0085B000AF78600023FB7305E0FB7B0133B7
:10620C00FB737B6801337B607B681B78002BF5D1BB
:10621C00FB7B18461437BD4680BC704780B584B0F4
:10622C0000AFF860B9601346FB80FB680222C3F82C
:10623C00F421FA88FB689A61FA88FB68DA61FB88BA
:10624C00BA680021F86800F015FD002318461037D5
:10625C00BD4680BD80B584B000AFF860B960134610
:10626C00FB80FB88BA680021F86800F003FD00236E
:10627C0018461037BD4680BD80B584B000AFF860BD
:10628C00B9601346FB80FB88BA680021F86800F0FF
:10629C002BFD002318461037BD4680BD80B582B05B
:1062AC0000AF78607B680422C3F8F421002300223D
:1062BC000021786800F0DEFC002318460837BD4644
:1062CC0080BD80B582B000AF78607B680522C3F8D2
:1062DC00F421002300220021786800F005FD002342
:1062EC0018460837BD4680BD80B500AFFAF728FFC9
:1062FC0000F008F800F080F800F0E4F900F064F821
:10630C00FEE7000080B594B000AF0123BB624FF4F0
:10631C008033FB6200233B630123BB6302237B645A
:10632C004FF48033BB644FF4E013FB6407F1280394
:10633C001846FCF79DF90346002B03D09721204803
:10634C0000F0C8F80F237B610223BB610023FB61C3
:10635C004FF480633B6200237B6207F1140302213C
:10636C001846FCF7E9FB0346002B03D0A521144883
:10637C0000F0B0F810237B6000233B613B1D1846F6
:10638C00FCF758FD0346002B03D0AC210C4800F061
:10639C00A1F8FCF727FD02460A4BA3FB02239B093D
:1063AC001846FBF72AF80420FBF734F800220021EA
:1063BC004FF0FF30FAF7F7FF00BF5037BD4680BDF6
:1063CC005C790008D34D621080B500AF074B084ACA
:1063DC001A600648FBF73AF80346002B03D0C2219B
:1063EC00044800F077F800BF80BD00BF9C0300207C
:1063FC00003002405C79000880B588B000AF314AAB
:10640C00304B9B6943F0100393612E4B9B6903F057
:10641C001003FB60FB682B4A2A4B9B6943F020035B
:10642C009361284B9B6903F02003BB60BB68254A32
:10643C00244B9B6943F004039361224B9B6903F04B
:10644C0004037B607B681F4A1E4B9B6943F0080367
:10645C0093611C4B9B6903F008033B603B68012272
:10646C004FF400511848FBF76BF94FF400533B61A4
:10647C0011237B610023BB610323FB6107F1100334
:10648C0019461148FAF7FEFF4EF2FF733B610023E9
:10649C007B610023BB6107F1100319460B48FAF727
:1064AC00F1FF4FF6FF733B6100237B610023BB615F
:1064BC0007F1100319460648FAF7E4FF00BF20372E
:1064CC00BD4680BD00100240001001400008014094
:1064DC00000C014080B483B000AF78603960FEE7F7
:1064EC0080B584B000AF2B4A2A4B9B6943F0010363
:1064FC009361284B9B6903F00103BB60BB68254A81
:10650C00244BDB6943F08053D361224BDB6903F0EE
:10651C0080537B607B680320FAF73AFF002200214E
:10652C006FF00B00FAF73FFF002200216FF00A001A
:10653C00FAF739FF002200216FF00900FAF733FF58
:10654C00002200216FF00400FAF72DFF0022002139
:10655C006FF00300FAF727FF002200216FF0010013
:10656C00FAF721FF002200214FF0FF30FAF71BFF52
:10657C00094B5B68FB60FB6823F0E063FB60FB6826
:10658C0043F08063FB60044AFB68536000BF103724
:10659C00BD4680BD001002400000014080B485B0B3
:1065AC0000AF78607B681B68094A93420BD1094A9B
:1065BC00084B5B6943F040035361064B5B6903F086
:1065CC004003FB60FB6800BF1437BD4680BC7047BE
:1065DC00003002400010024080B400AF00BFBD4646
:1065EC0080BC704780B400AFFEE780B400AFFEE71C
:1065FC0080B400AFFEE780B400AFFEE780B400AF1C
:10660C0000BFBD4680BC704780B400AF00BFBD4624
:10661C0080BC704780B400AF00BFBD4680BC7047E3
:10662C0080B400AF00BFBD4680BC704780B500AFE2
:10663C00FAF7CCFD024B1B68984700BF80BD00BF2A
:10664C00AC00002080B500AF0248FBF791F900BF09
:10665C0080BD00BFC805002080B400AF154A154BA3
:10666C001B6843F0010313601249124B5A68124B1A
:10667C0013404B600F4A0F4B1B6823F0847323F4B9
:10668C00803313600B4A0B4B1B6823F4802313607D
:10669C00084A084B5B6823F4FE035360054B4FF428
:1066AC001F029A60054B064A9A6000BFBD4680BC2B
:1066BC00704700BF001002400000FFF800ED00E042
:1066CC000010000880B500AF002208490848FEF70A
:1066DC000CFF08490648FEF733FF07490448FDF74D
:1066EC00DFFE0348FEF745FF00BF80BDB40000206D
:1066FC00A403002008000020E800002080B584B02E
:10670C0000AF78607B681B680D4A934213D10D4A29
:10671C000C4BDB6943F40003D3610A4BDB6903F4D4
:10672C000003FB60FB68002200211420FAF73BFEFB
:10673C001420FAF754FE00BF1037BD4680BD00BFD1
:10674C00005C00400010024080B582B000AF786061
:10675C007B68D3F85C247B6803F22C431946104603
:10676C00FEF74FFF00BF0837BD4680BD80B582B035
:10677C0000AF78600B46FB707B68D3F85C04FB7849
:10678C007A685B01134403F50F731A68FB7819469A
:10679C00FEF781FF00BF0837BD4680BD80B582B0D3
:1067AC0000AF78600B46FB707B68D3F85C04FB7819
:1067BC007A685B0113443C331A68FB781946FEF780
:1067CC00C5FF00BF0837BD4680BD80B582B000AFA5
:1067DC0078607B68D3F85C341846FFF7A8F800BFE4
:1067EC000837BD4680BD80B584B000AF786001230A
:1067FC00FB737B689B68022B02D10123FB7302E0C5
:10680C000123FB7300BF7B68D3F85C34FA7B114621
:10681C001846FFF759F87B68D3F85C341846FFF735
:10682C0024F800BF1037BD4680BD000080B582B093
:10683C0000AF78607B68D3F85C341846FFF753F8E8
:10684C007B689B69002B05D0044A044B1B6943F001
:10685C000603136100BF0837BD4680BD00ED00E0A4
:10686C0080B582B000AF78607B68D3F85C34184692
:10687C00FFF74DF800BF0837BD4680BD80B582B02C
:10688C0000AF7860264A7B68C2F85C347B68244A87
:10689C00C3F82022224B234A1A60214B08225A604B
:1068AC001F4B02229A601E4B0322DA601C4B002203
:1068BC009A611B4B0022DA61194B00221A621848AC
:1068CC00FAF756FF0346002B04D04FF49771164885
:1068DC00FFF700FE7B68D3F820021823002200216A
:1068EC00FBF788FE7B68D3F8200258230022802116
:1068FC00FBF780FE7B68D3F82002982300228121CD
:10690C00FBF778FE7B68D3F82002D8230022012104
:10691C00FBF770FE002318460837BD4680BD00BF4C
:10692C00C8050020005C00406C79000880B584B07C
:10693C0000AF78600023BB730023FB737B68D3F834
:10694C0020321846FAF7EEFF0346BB73BB7B032BD2
:10695C0016D801A252F823F0756900087B6900086B
:10696C0081690008876900080023FB730BE0022390
:10697C00FB7308E00123FB7305E00223FB7302E0C9
:10698C000223FB7300BFFB7B18461037BD4680BD4E
:10699C0080B584B000AF7860084611461A460346AD
:1069AC00FB700B46BB7013463B800023BB7300236C
:1069BC00FB737B68D3F82002BB783A88F978FBF735
:1069CC00FEF80346BB73BB7B032B17D801A252F80E
:1069DC0023F000BFF1690008F7690008FD690008A1
:1069EC00036A00080023FB730BE00223FB7308E02F
:1069FC000123FB7305E00223FB7302E00223FB730C
:106A0C0000BFFB7B18461037BD4680BD80B584B0F7
:106A1C0000AF78600B46FB700023BB730023FB7345
:106A2C007B68D3F82032FA7811461846FBF71CF92C
:106A3C000346BB73BB7B032B16D801A252F823F081
:106A4C005D6A0008636A0008696A00086F6A0008DA
:106A5C000023FB730BE00223FB7308E00123FB73A1
:106A6C0005E00223FB7302E00223FB7300BFFB7BF8
:106A7C0018461037BD4680BD80B584B000AF786035
:106A8C000B46FB700023BB730023FB737B68D3F8AE
:106A9C002032FA7811461846FBF754FA0346BB73BA
:106AAC00BB7B032B16D801A252F823F0C96A00084D
:106ABC00CF6A0008D56A0008DB6A00080023FB7364
:106ACC000BE00223FB7308E00123FB7305E00223B8
